{
  "contractName": "MainEventBetting",
  "abi": [
    {
      "inputs": [],
      "payable": false,
      "stateMutability": "nonpayable",
      "type": "constructor"
    },
    {
      "constant": true,
      "inputs": [],
      "name": "name",
      "outputs": [
        {
          "internalType": "string",
          "name": "",
          "type": "string"
        }
      ],
      "payable": false,
      "stateMutability": "view",
      "type": "function"
    },
    {
      "constant": true,
      "inputs": [],
      "name": "owner",
      "outputs": [
        {
          "internalType": "address",
          "name": "",
          "type": "address"
        }
      ],
      "payable": false,
      "stateMutability": "view",
      "type": "function"
    },
    {
      "constant": true,
      "inputs": [],
      "name": "getFightersForMostRecentEvent",
      "outputs": [
        {
          "internalType": "string",
          "name": "fighter1Name",
          "type": "string"
        },
        {
          "internalType": "int256",
          "name": "fighter1Odds",
          "type": "int256"
        },
        {
          "internalType": "uint256",
          "name": "fighter1Id",
          "type": "uint256"
        },
        {
          "internalType": "string",
          "name": "fighter2Name",
          "type": "string"
        },
        {
          "internalType": "int256",
          "name": "fighter2Odds",
          "type": "int256"
        },
        {
          "internalType": "uint256",
          "name": "fighter2Id",
          "type": "uint256"
        }
      ],
      "payable": false,
      "stateMutability": "view",
      "type": "function"
    },
    {
      "constant": true,
      "inputs": [],
      "name": "getMostRecentEvent",
      "outputs": [
        {
          "internalType": "uint256",
          "name": "id",
          "type": "uint256"
        },
        {
          "internalType": "uint256",
          "name": "winner",
          "type": "uint256"
        },
        {
          "internalType": "string",
          "name": "eventName",
          "type": "string"
        }
      ],
      "payable": false,
      "stateMutability": "view",
      "type": "function"
    },
    {
      "constant": false,
      "inputs": [
        {
          "internalType": "string",
          "name": "fighter1Name",
          "type": "string"
        },
        {
          "internalType": "int256",
          "name": "fighter1Odds",
          "type": "int256"
        },
        {
          "internalType": "string",
          "name": "fighter2Name",
          "type": "string"
        },
        {
          "internalType": "int256",
          "name": "fighter2Odds",
          "type": "int256"
        },
        {
          "internalType": "string",
          "name": "eventName",
          "type": "string"
        }
      ],
      "name": "createEvent",
      "outputs": [],
      "payable": false,
      "stateMutability": "nonpayable",
      "type": "function"
    }
  ],
  "bytecode": "0x60806040526040518060400160405280601081526020017f4d61696e4576656e7442657474696e67000000000000000000000000000000008152506000908051906020019061004f9291906100a3565b5034801561005c57600080fd5b5033600160006101000a81548173ffffffffffffffffffffffffffffffffffffffff021916908373ffffffffffffffffffffffffffffffffffffffff160217905550610148565b828054600181600116156101000203166002900490600052602060002090601f016020900481019282601f106100e457805160ff1916838001178555610112565b82800160010185558215610112579182015b828111156101115782518255916020019190600101906100f6565b5b50905061011f9190610123565b5090565b61014591905b80821115610141576000816000905550600101610129565b5090565b90565b610e55806101576000396000f3fe608060405234801561001057600080fd5b50600436106100575760003560e01c806306fdde031461005c5780637971fa55146100df5780638c6469f9146101ea5780638da5cb5b1461027b578063a493a2b2146102c5575b600080fd5b6100646104c2565b6040518080602001828103825283818151815260200191508051906020019080838360005b838110156100a4578082015181840152602081019050610089565b50505050905090810190601f1680156100d15780820380516001836020036101000a031916815260200191505b509250505060405180910390f35b6100e7610560565b604051808060200187815260200186815260200180602001858152602001848152602001838103835289818151815260200191508051906020019080838360005b83811015610143578082015181840152602081019050610128565b50505050905090810190601f1680156101705780820380516001836020036101000a031916815260200191505b50838103825286818151815260200191508051906020019080838360005b838110156101a957808201518184015260208101905061018e565b50505050905090810190601f1680156101d65780820380516001836020036101000a031916815260200191505b509850505050505050505060405180910390f35b6101f2610851565b6040518084815260200183815260200180602001828103825283818151815260200191508051906020019080838360005b8381101561023e578082015181840152602081019050610223565b50505050905090810190601f16801561026b5780820380516001836020036101000a031916815260200191505b5094505050505060405180910390f35b610283610b0e565b604051808273ffffffffffffffffffffffffffffffffffffffff1673ffffffffffffffffffffffffffffffffffffffff16815260200191505060405180910390f35b6104c0600480360360a08110156102db57600080fd5b81019080803590602001906401000000008111156102f857600080fd5b82018360208201111561030a57600080fd5b8035906020019184600183028401116401000000008311171561032c57600080fd5b91908080601f016020809104026020016040519081016040528093929190818152602001838380828437600081840152601f19601f820116905080830192505050505050509192919290803590602001909291908035906020019064010000000081111561039957600080fd5b8201836020820111156103ab57600080fd5b803590602001918460018302840111640100000000831117156103cd57600080fd5b91908080601f016020809104026020016040519081016040528093929190818152602001838380828437600081840152601f19601f820116905080830192505050505050509192919290803590602001909291908035906020019064010000000081111561043a57600080fd5b82018360208201111561044c57600080fd5b8035906020019184600183028401116401000000008311171561046e57600080fd5b91908080601f016020809104026020016040519081016040528093929190818152602001838380828437600081840152601f19601f820116905080830192505050505050509192919290505050610b34565b005b60008054600181600116156101000203166002900480601f0160208091040260200160405190810160405280929190818152602001828054600181600116156101000203166002900480156105585780601f1061052d57610100808354040283529160200191610558565b820191906000526020600020905b81548152906001019060200180831161053b57829003601f168201915b505050505081565b6060600080606060008060016003805490501161057c57600080fd5b610584610cfe565b60036001600380549050038154811061059957fe5b90600052602060002090600902016040518060a001604052908160008201604051806060016040529081600082018054600181600116156101000203166002900480601f01602080910402602001604051908101604052809291908181526020018280546001816001161561010002031660029004801561065b5780601f106106305761010080835404028352916020019161065b565b820191906000526020600020905b81548152906001019060200180831161063e57829003601f168201915b5050505050815260200160018201548152602001600282015481525050815260200160038201604051806060016040529081600082018054600181600116156101000203166002900480601f0160208091040260200160405190810160405280929190818152602001828054600181600116156101000203166002900480156107255780601f106106fa57610100808354040283529160200191610725565b820191906000526020600020905b81548152906001019060200180831161070857829003601f168201915b505050505081526020016001820154815260200160028201548152505081526020016006820154815260200160078201548152602001600882018054600181600116156101000203166002900480601f0160208091040260200160405190810160405280929190818152602001828054600181600116156101000203166002900480156107f35780601f106107c8576101008083540402835291602001916107f3565b820191906000526020600020905b8154815290600101906020018083116107d657829003601f168201915b5050505050815250509050610806610d39565b81600001519050610815610d39565b82602001519050816000015198508160200151975081604001519650806000015195508060200151945080604001519350505050909192939495565b600080606060016003805490501161086857600080fd5b610870610cfe565b60036001600380549050038154811061088557fe5b90600052602060002090600902016040518060a001604052908160008201604051806060016040529081600082018054600181600116156101000203166002900480601f0160208091040260200160405190810160405280929190818152602001828054600181600116156101000203166002900480156109475780601f1061091c57610100808354040283529160200191610947565b820191906000526020600020905b81548152906001019060200180831161092a57829003601f168201915b5050505050815260200160018201548152602001600282015481525050815260200160038201604051806060016040529081600082018054600181600116156101000203166002900480601f016020809104026020016040519081016040528092919081815260200182805460018160011615610100020316600290048015610a115780601f106109e657610100808354040283529160200191610a11565b820191906000526020600020905b8154815290600101906020018083116109f457829003601f168201915b505050505081526020016001820154815260200160028201548152505081526020016006820154815260200160078201548152602001600882018054600181600116156101000203166002900480601f016020809104026020016040519081016040528092919081815260200182805460018160011615610100020316600290048015610adf5780601f10610ab457610100808354040283529160200191610adf565b820191906000526020600020905b815481529060010190602001808311610ac257829003601f168201915b505050505081525050905080604001519350806060015192508060800151915083838393509350935050909192565b600160009054906101000a900473ffffffffffffffffffffffffffffffffffffffff1681565b600160009054906101000a900473ffffffffffffffffffffffffffffffffffffffff1673ffffffffffffffffffffffffffffffffffffffff163373ffffffffffffffffffffffffffffffffffffffff1614610b8e57600080fd5b610b96610d39565b604051806060016040528087815260200186815260200160018152509050610bbc610d39565b604051806060016040528086815260200185815260200160028152509050610be2610cfe565b6040518060a00160405280848152602001838152602001600254815260200160008152602001858152509050600381908060018154018082558091505090600182039060005260206000209060090201600090919290919091506000820151816000016000820151816000019080519060200190610c61929190610d5a565b50602082015181600101556040820151816002015550506020820151816003016000820151816000019080519060200190610c9d929190610d5a565b506020820151816001015560408201518160020155505060408201518160060155606082015181600701556080820151816008019080519060200190610ce4929190610d5a565b505050506001600254016002819055505050505050505050565b6040518060a00160405280610d11610dda565b8152602001610d1e610dda565b81526020016000815260200160008152602001606081525090565b60405180606001604052806060815260200160008152602001600081525090565b828054600181600116156101000203166002900490600052602060002090601f016020900481019282601f10610d9b57805160ff1916838001178555610dc9565b82800160010185558215610dc9579182015b82811115610dc8578251825591602001919060010190610dad565b5b509050610dd69190610dfb565b5090565b60405180606001604052806060815260200160008152602001600081525090565b610e1d91905b80821115610e19576000816000905550600101610e01565b5090565b9056fea265627a7a723158207bc64adc3e6b5306658bfeff776f39b3d91c3ed9545a9a8e9aa84686b5e555f864736f6c63430005100032",
  "source": "pragma solidity >=0.4.21 <0.7.0;\r\n\r\ncontract MainEventBetting {\r\n  /******************************\r\n   * State\r\n   ******************************/\r\n\r\n  string public name = \"MainEventBetting\";\r\n  address public owner;\r\n  uint eventId;\r\n  Event[] events;\r\n\r\n  /******************************\r\n   * Structs\r\n   ******************************/\r\n\r\n  /**\r\n   * Struct that represents an event -- a fight\r\n   */\r\n  struct Event {\r\n    // uint date; comment out for now to keep things simple\r\n    Fighter fighter1;\r\n    Fighter fighter2;\r\n    uint id;\r\n    uint winner;\r\n    string name;\r\n  }\r\n\r\n  /**\r\n   * Struct representing a fighter\r\n   */\r\n  struct Fighter {\r\n    string name;\r\n    int odds;\r\n    uint id;\r\n  }\r\n\r\n  /******************************\r\n   * Constructor\r\n   ******************************/\r\n\r\n  /**\r\n   * Used for setting initial sender as owner; there\r\n   * should be an easier way to do this\r\n   */\r\n  constructor () public {\r\n    owner = msg.sender;\r\n  }\r\n\r\n  /******************************\r\n   * Methods\r\n   ******************************/\r\n  \r\n  /**\r\n   * Method for returning the fighters' data for the most recent\r\n   * event; it's the supplemental function for its sibling function\r\n   */\r\n  function getFightersForMostRecentEvent() public view returns (string memory fighter1Name, int fighter1Odds, uint fighter1Id, string memory fighter2Name, int fighter2Odds, uint fighter2Id) {\r\n    require(events.length > 1);\r\n\r\n    Event memory fightEvent = events[events.length - 1];\r\n    Fighter memory fighter1 = fightEvent.fighter1;\r\n    Fighter memory fighter2 = fightEvent.fighter2;\r\n\r\n    fighter1Name = fighter1.name;\r\n    fighter1Odds = fighter1.odds;\r\n    fighter1Id = fighter1.id;\r\n    fighter2Name = fighter2.name;\r\n    fighter2Odds = fighter2.odds;\r\n    fighter2Id = fighter2.id;\r\n  }\r\n\r\n  /**\r\n   * Method for returning the most recent event.\r\n   * It does not return the fighters, since\r\n   * functions can't return structs.  Instead,\r\n   * that is done by another method.\r\n   */\r\n  function getMostRecentEvent() public view returns (uint id, uint winner, string memory eventName) {\r\n    require(events.length > 1);\r\n\r\n    Event memory fightEvent = events[events.length - 1];\r\n\r\n    id = fightEvent.id;\r\n    winner = fightEvent.winner;\r\n    eventName = fightEvent.name;\r\n\r\n    return (id, winner, eventName);\r\n  }\r\n\r\n  /**\r\n   * Method for creating event \r\n   */\r\n  function createEvent(string memory fighter1Name, int fighter1Odds, string memory fighter2Name, int fighter2Odds, string memory eventName) public {\r\n    require(msg.sender == owner);\r\n\r\n    Fighter memory fighter1 = Fighter(fighter1Name, fighter1Odds, 1);\r\n    Fighter memory fighter2 = Fighter(fighter2Name, fighter2Odds, 2);\r\n    Event memory fightEvent = Event(fighter1, fighter2, eventId, 0, eventName);\r\n\r\n    events.push(fightEvent);\r\n\r\n    eventId = eventId + 1;\r\n  }\r\n}",
  "sourcePath": "C:/Users/bguillen/Documents/sandbox/dapp-pocs/main-event-betting/contracts/MainEventBetting.sol",
  "compiler": {
    "name": "solc",
    "version": "0.5.16+commit.9c3226ce.Emscripten.clang"
  },
  "schemaVersion": "3.2.3",
  "updatedAt": "2021-07-29T21:50:48.739Z",
  "devdoc": {
    "methods": {}
  },
  "userdoc": {
    "methods": {
      "constructor": "Used for setting initial sender as owner; there should be an easier way to do this",
      "createEvent(string,int256,string,int256,string)": {
        "notice": "Method for creating event "
      },
      "getFightersForMostRecentEvent()": {
        "notice": "Method for returning the fighters' data for the most recent event; it's the supplemental function for its sibling function"
      },
      "getMostRecentEvent()": {
        "notice": "Method for returning the most recent event. It does not return the fighters, since functions can't return structs.  Instead, that is done by another method."
      }
    }
  }
}