{
  "contractName": "MainEventBetting",
  "abi": [
    {
      "inputs": [],
      "payable": false,
      "stateMutability": "nonpayable",
      "type": "constructor"
    },
    {
      "anonymous": false,
      "inputs": [
        {
          "indexed": false,
          "internalType": "address",
          "name": "from",
          "type": "address"
        },
        {
          "indexed": false,
          "internalType": "uint256",
          "name": "amount",
          "type": "uint256"
        },
        {
          "indexed": false,
          "internalType": "uint256",
          "name": "fighterId",
          "type": "uint256"
        }
      ],
      "name": "BetSubmitted",
      "type": "event"
    },
    {
      "constant": true,
      "inputs": [],
      "name": "name",
      "outputs": [
        {
          "internalType": "string",
          "name": "",
          "type": "string"
        }
      ],
      "payable": false,
      "stateMutability": "view",
      "type": "function"
    },
    {
      "constant": true,
      "inputs": [],
      "name": "owner",
      "outputs": [
        {
          "internalType": "address",
          "name": "",
          "type": "address"
        }
      ],
      "payable": false,
      "stateMutability": "view",
      "type": "function"
    },
    {
      "constant": true,
      "inputs": [
        {
          "internalType": "uint256",
          "name": "betAmount",
          "type": "uint256"
        },
        {
          "internalType": "int256",
          "name": "odds",
          "type": "int256"
        }
      ],
      "name": "calculatePayout",
      "outputs": [
        {
          "internalType": "uint256",
          "name": "payout",
          "type": "uint256"
        }
      ],
      "payable": false,
      "stateMutability": "pure",
      "type": "function"
    },
    {
      "constant": false,
      "inputs": [
        {
          "internalType": "string",
          "name": "fighter1Name",
          "type": "string"
        },
        {
          "internalType": "int256",
          "name": "fighter1Odds",
          "type": "int256"
        },
        {
          "internalType": "string",
          "name": "fighter2Name",
          "type": "string"
        },
        {
          "internalType": "int256",
          "name": "fighter2Odds",
          "type": "int256"
        },
        {
          "internalType": "string",
          "name": "eventName",
          "type": "string"
        },
        {
          "internalType": "uint256",
          "name": "eventDate",
          "type": "uint256"
        }
      ],
      "name": "createEvent",
      "outputs": [],
      "payable": false,
      "stateMutability": "nonpayable",
      "type": "function"
    },
    {
      "constant": true,
      "inputs": [
        {
          "internalType": "uint256",
          "name": "idForEvent",
          "type": "uint256"
        }
      ],
      "name": "getBet",
      "outputs": [
        {
          "internalType": "uint256",
          "name": "fighterId",
          "type": "uint256"
        },
        {
          "internalType": "uint256",
          "name": "amount",
          "type": "uint256"
        },
        {
          "internalType": "bool",
          "name": "exists",
          "type": "bool"
        }
      ],
      "payable": false,
      "stateMutability": "view",
      "type": "function"
    },
    {
      "constant": true,
      "inputs": [],
      "name": "getFightersForMostRecentEvent",
      "outputs": [
        {
          "internalType": "string",
          "name": "fighter1Name",
          "type": "string"
        },
        {
          "internalType": "int256",
          "name": "fighter1Odds",
          "type": "int256"
        },
        {
          "internalType": "uint256",
          "name": "fighter1Id",
          "type": "uint256"
        },
        {
          "internalType": "string",
          "name": "fighter2Name",
          "type": "string"
        },
        {
          "internalType": "int256",
          "name": "fighter2Odds",
          "type": "int256"
        },
        {
          "internalType": "uint256",
          "name": "fighter2Id",
          "type": "uint256"
        }
      ],
      "payable": false,
      "stateMutability": "view",
      "type": "function"
    },
    {
      "constant": true,
      "inputs": [],
      "name": "getMostRecentEvent",
      "outputs": [
        {
          "internalType": "uint256",
          "name": "id",
          "type": "uint256"
        },
        {
          "internalType": "uint256",
          "name": "winner",
          "type": "uint256"
        },
        {
          "internalType": "string",
          "name": "eventName",
          "type": "string"
        },
        {
          "internalType": "uint256",
          "name": "eventDate",
          "type": "uint256"
        }
      ],
      "payable": false,
      "stateMutability": "view",
      "type": "function"
    },
    {
      "constant": false,
      "inputs": [
        {
          "internalType": "uint256",
          "name": "idForEvent",
          "type": "uint256"
        },
        {
          "internalType": "uint256",
          "name": "fighterId",
          "type": "uint256"
        },
        {
          "internalType": "uint256",
          "name": "amount",
          "type": "uint256"
        }
      ],
      "name": "placeBet",
      "outputs": [],
      "payable": true,
      "stateMutability": "payable",
      "type": "function"
    }
  ],
  "bytecode": "0x60806040526040518060400160405280601081526020017f4d61696e4576656e7442657474696e67000000000000000000000000000000008152506000908051906020019062000051929190620000a7565b503480156200005f57600080fd5b5033600160006101000a81548173ffffffffffffffffffffffffffffffffffffffff021916908373ffffffffffffffffffffffffffffffffffffffff16021790555062000156565b828054600181600116156101000203166002900490600052602060002090601f016020900481019282601f10620000ea57805160ff19168380011785556200011b565b828001600101855582156200011b579182015b828111156200011a578251825591602001919060010190620000fd565b5b5090506200012a91906200012e565b5090565b6200015391905b808211156200014f57600081600090555060010162000135565b5090565b90565b6114e080620001666000396000f3fe60806040526004361061007b5760003560e01c80637971fa551161004e5780637971fa55146103de5780638c6469f9146104f65780638da5cb5b1461059b578063e71c9697146105f25761007b565b8063061e494f1461008057806306fdde03146100e15780631638f6281461017157806336e5dd83146101ca575b600080fd5b34801561008c57600080fd5b506100b9600480360360208110156100a357600080fd5b8101908080359060200190929190505050610634565b6040518084815260200183815260200182151515158152602001935050505060405180910390f35b3480156100ed57600080fd5b506100f6610740565b6040518080602001828103825283818151815260200191508051906020019080838360005b8381101561013657808201518184015260208101905061011b565b50505050905090810190601f1680156101635780820380516001836020036101000a031916815260200191505b509250505060405180910390f35b34801561017d57600080fd5b506101b46004803603604081101561019457600080fd5b8101908080359060200190929190803590602001909291905050506107de565b6040518082815260200191505060405180910390f35b3480156101d657600080fd5b506103dc600480360360c08110156101ed57600080fd5b810190808035906020019064010000000081111561020a57600080fd5b82018360208201111561021c57600080fd5b8035906020019184600183028401116401000000008311171561023e57600080fd5b91908080601f016020809104026020016040519081016040528093929190818152602001838380828437600081840152601f19601f82011690508083019250505050505050919291929080359060200190929190803590602001906401000000008111156102ab57600080fd5b8201836020820111156102bd57600080fd5b803590602001918460018302840111640100000000831117156102df57600080fd5b91908080601f016020809104026020016040519081016040528093929190818152602001838380828437600081840152601f19601f820116905080830192505050505050509192919290803590602001909291908035906020019064010000000081111561034c57600080fd5b82018360208201111561035e57600080fd5b8035906020019184600183028401116401000000008311171561038057600080fd5b91908080601f016020809104026020016040519081016040528093929190818152602001838380828437600081840152601f19601f82011690508083019250505050505050919291929080359060200190929190505050610812565b005b3480156103ea57600080fd5b506103f36109ed565b604051808060200187815260200186815260200180602001858152602001848152602001838103835289818151815260200191508051906020019080838360005b8381101561044f578082015181840152602081019050610434565b50505050905090810190601f16801561047c5780820380516001836020036101000a031916815260200191505b50838103825286818151815260200191508051906020019080838360005b838110156104b557808201518184015260208101905061049a565b50505050905090810190601f1680156104e25780820380516001836020036101000a031916815260200191505b509850505050505050505060405180910390f35b34801561050257600080fd5b5061050b610ce8565b6040518085815260200184815260200180602001838152602001828103825284818151815260200191508051906020019080838360005b8381101561055d578082015181840152602081019050610542565b50505050905090810190601f16801561058a5780820380516001836020036101000a031916815260200191505b509550505050505060405180910390f35b3480156105a757600080fd5b506105b0610fb0565b604051808273ffffffffffffffffffffffffffffffffffffffff1673ffffffffffffffffffffffffffffffffffffffff16815260200191505060405180910390f35b6106326004803603606081101561060857600080fd5b81019080803590602001909291908035906020019092919080359060200190929190505050610fd6565b005b6000806000610641611342565b6004600086815260200190815260200160002060003373ffffffffffffffffffffffffffffffffffffffff1673ffffffffffffffffffffffffffffffffffffffff1681526020019081526020016000206040518060800160405290816000820160009054906101000a900473ffffffffffffffffffffffffffffffffffffffff1673ffffffffffffffffffffffffffffffffffffffff1673ffffffffffffffffffffffffffffffffffffffff16815260200160018201548152602001600282015481526020016003820160009054906101000a900460ff1615151515815250509050806020015193508060400151925080606001519150509193909250565b60008054600181600116156101000203166002900480601f0160208091040260200160405190810160405280929190818152602001828054600181600116156101000203166002900480156107d65780601f106107ab576101008083540402835291602001916107d6565b820191906000526020600020905b8154815290600101906020018083116107b957829003601f168201915b505050505081565b6000808213156107fc5781606484816107f357fe5b0402905061080c565b606482848161080757fe5b040290505b92915050565b600160009054906101000a900473ffffffffffffffffffffffffffffffffffffffff1673ffffffffffffffffffffffffffffffffffffffff163373ffffffffffffffffffffffffffffffffffffffff161461086c57600080fd5b610874611382565b60405180606001604052808881526020018781526020016001815250905061089a611382565b6040518060600160405280878152602001868152602001600281525090506108c06113a3565b6040518060c001604052808481526020018381526020016002548152602001600081526020018681526020018581525090506003819080600181540180825580915050906001820390600052602060002090600a02016000909192909190915060008201518160000160008201518160000190805190602001906109459291906113e5565b506020820151816001015560408201518160020155505060208201518160030160008201518160000190805190602001906109819291906113e5565b5060208201518160010155604082015181600201555050604082015181600601556060820151816007015560808201518160080190805190602001906109c89291906113e5565b5060a08201518160090155505050600160025401600281905550505050505050505050565b60606000806060600080600160038054905011610a0957600080fd5b610a116113a3565b600360016003805490500381548110610a2657fe5b90600052602060002090600a02016040518060c001604052908160008201604051806060016040529081600082018054600181600116156101000203166002900480601f016020809104026020016040519081016040528092919081815260200182805460018160011615610100020316600290048015610ae85780601f10610abd57610100808354040283529160200191610ae8565b820191906000526020600020905b815481529060010190602001808311610acb57829003601f168201915b5050505050815260200160018201548152602001600282015481525050815260200160038201604051806060016040529081600082018054600181600116156101000203166002900480601f016020809104026020016040519081016040528092919081815260200182805460018160011615610100020316600290048015610bb25780601f10610b8757610100808354040283529160200191610bb2565b820191906000526020600020905b815481529060010190602001808311610b9557829003601f168201915b505050505081526020016001820154815260200160028201548152505081526020016006820154815260200160078201548152602001600882018054600181600116156101000203166002900480601f016020809104026020016040519081016040528092919081815260200182805460018160011615610100020316600290048015610c805780601f10610c5557610100808354040283529160200191610c80565b820191906000526020600020905b815481529060010190602001808311610c6357829003601f168201915b505050505081526020016009820154815250509050610c9d611382565b81600001519050610cac611382565b82602001519050816000015198508160200151975081604001519650806000015195508060200151945080604001519350505050909192939495565b60008060606000600160038054905011610d0157600080fd5b610d096113a3565b600360016003805490500381548110610d1e57fe5b90600052602060002090600a02016040518060c001604052908160008201604051806060016040529081600082018054600181600116156101000203166002900480601f016020809104026020016040519081016040528092919081815260200182805460018160011615610100020316600290048015610de05780601f10610db557610100808354040283529160200191610de0565b820191906000526020600020905b815481529060010190602001808311610dc357829003601f168201915b5050505050815260200160018201548152602001600282015481525050815260200160038201604051806060016040529081600082018054600181600116156101000203166002900480601f016020809104026020016040519081016040528092919081815260200182805460018160011615610100020316600290048015610eaa5780601f10610e7f57610100808354040283529160200191610eaa565b820191906000526020600020905b815481529060010190602001808311610e8d57829003601f168201915b505050505081526020016001820154815260200160028201548152505081526020016006820154815260200160078201548152602001600882018054600181600116156101000203166002900480601f016020809104026020016040519081016040528092919081815260200182805460018160011615610100020316600290048015610f785780601f10610f4d57610100808354040283529160200191610f78565b820191906000526020600020905b815481529060010190602001808311610f5b57829003601f168201915b5050505050815260200160098201548152505090508060400151945080606001519350806080015192508060a0015191505090919293565b600160009054906101000a900473ffffffffffffffffffffffffffffffffffffffff1681565b600160025403831115610fe857600080fd5b60003390506000806000610ffb87610634565b92509250925080156111225782861461101357600080fd5b60405180608001604052808573ffffffffffffffffffffffffffffffffffffffff1681526020018481526020018684018152602001600115158152506004600089815260200190815260200160002060008673ffffffffffffffffffffffffffffffffffffffff1673ffffffffffffffffffffffffffffffffffffffff16815260200190815260200160002060008201518160000160006101000a81548173ffffffffffffffffffffffffffffffffffffffff021916908373ffffffffffffffffffffffffffffffffffffffff160217905550602082015181600101556040820151816002015560608201518160030160006101000a81548160ff0219169083151502179055509050506112c6565b60018614806111315750600286145b61113a57600080fd5b611142611342565b60405180608001604052808673ffffffffffffffffffffffffffffffffffffffff16815260200188815260200187815260200160011515815250905080600460008a815260200190815260200160002060008773ffffffffffffffffffffffffffffffffffffffff1673ffffffffffffffffffffffffffffffffffffffff16815260200190815260200160002060008201518160000160006101000a81548173ffffffffffffffffffffffffffffffffffffffff021916908373ffffffffffffffffffffffffffffffffffffffff160217905550602082015181600101556040820151816002015560608201518160030160006101000a81548160ff021916908315150217905550905050600560008981526020019081526020016000208590806001815401808255809150509060018203906000526020600020016000909192909190916101000a81548173ffffffffffffffffffffffffffffffffffffffff021916908373ffffffffffffffffffffffffffffffffffffffff16021790555050505b7f3754c933744cae8a9a7ca537210cb6c27f00d8fd219ff86ac67a35a067d3bb1a848688604051808473ffffffffffffffffffffffffffffffffffffffff1673ffffffffffffffffffffffffffffffffffffffff168152602001838152602001828152602001935050505060405180910390a150505050505050565b6040518060800160405280600073ffffffffffffffffffffffffffffffffffffffff16815260200160008152602001600081526020016000151581525090565b60405180606001604052806060815260200160008152602001600081525090565b6040518060c001604052806113b6611465565b81526020016113c3611465565b8152602001600081526020016000815260200160608152602001600081525090565b828054600181600116156101000203166002900490600052602060002090601f016020900481019282601f1061142657805160ff1916838001178555611454565b82800160010185558215611454579182015b82811115611453578251825591602001919060010190611438565b5b5090506114619190611486565b5090565b60405180606001604052806060815260200160008152602001600081525090565b6114a891905b808211156114a457600081600090555060010161148c565b5090565b9056fea265627a7a7231582004595049d4c299376da6191ffb932b66f0cc3ef6c243dfd76ab423ef6c797f8c64736f6c63430005100032",
  "source": "pragma solidity >=0.4.21 <0.7.0;\r\n\r\ncontract MainEventBetting {\r\n  /******************************\r\n   * State\r\n   ******************************/\r\n\r\n  string public name = \"MainEventBetting\";\r\n  address public owner;\r\n  uint eventId;\r\n  Event[] events;\r\n  mapping (uint => mapping (address => Bet)) bets;\r\n  /**\r\n   * Used to keep an array of all the users that have placed bet(s)\r\n   * per event.  This is useful for the payout because the contract\r\n   * could iterate through all users, see who won, and just pay them.\r\n   */\r\n  mapping (uint => address payable[]) usersThatPlacedBets;\r\n\r\n  /******************************\r\n   * Structs\r\n   ******************************/\r\n\r\n  /**\r\n   * Struct that represents a bet for a fight\r\n   */\r\n  struct Bet {\r\n    address payable user;\r\n    uint fighterId;\r\n    uint amount;\r\n    bool exists;\r\n  }\r\n\r\n  /**\r\n   * Struct that represents an event -- a fight\r\n   */\r\n  struct Event {\r\n    Fighter fighter1;\r\n    Fighter fighter2;\r\n    uint id;\r\n    uint winner;\r\n    string name;\r\n    uint date;\r\n  }\r\n\r\n  /**\r\n   * Struct representing a fighter\r\n   */\r\n  struct Fighter {\r\n    string name;\r\n    int odds;\r\n    uint id;\r\n  }\r\n\r\n  /******************************\r\n   * Events\r\n   ******************************/\r\n\r\n  event BetSubmitted(address from, uint amount, uint fighterId);\r\n\r\n  /******************************\r\n   * Constructor\r\n   ******************************/\r\n\r\n  /**\r\n   * Used for setting initial sender as owner; there\r\n   * should be an easier way to do this\r\n   */\r\n  constructor () public {\r\n    owner = msg.sender;\r\n  }\r\n\r\n  /******************************\r\n   * Methods\r\n   ******************************/\r\n\r\n  /**\r\n   * Method for calculating the payout\r\n   */\r\n  function calculatePayout(uint betAmount, int odds) public pure returns (uint payout) {\r\n    if (odds > 0) {\r\n      /**\r\n       * If plus line/plus bet\r\n       */\r\n      payout = (betAmount / 100) * uint(odds);\r\n    } else {\r\n      payout = (betAmount / uint(odds)) * 100;\r\n    }\r\n  }\r\n\r\n  /**\r\n   * Method for creating event \r\n   */\r\n  function createEvent(string memory fighter1Name, int fighter1Odds, string memory fighter2Name, int fighter2Odds, string memory eventName, uint eventDate) public {\r\n    require(msg.sender == owner);\r\n\r\n    Fighter memory fighter1 = Fighter(fighter1Name, fighter1Odds, 1);\r\n    Fighter memory fighter2 = Fighter(fighter2Name, fighter2Odds, 2);\r\n    Event memory fightEvent = Event(fighter1, fighter2, eventId, 0, eventName, eventDate);\r\n\r\n    events.push(fightEvent);\r\n\r\n    eventId = eventId + 1;\r\n  }\r\n\r\n  /**\r\n   * Method for getting bet\r\n   */\r\n  function getBet(uint idForEvent) public view returns (uint fighterId, uint amount, bool exists) {\r\n    Bet memory betForEvent = bets[idForEvent][msg.sender];\r\n\r\n    fighterId = betForEvent.fighterId;\r\n    amount = betForEvent.amount;\r\n    exists = betForEvent.exists;\r\n  }\r\n  \r\n  /**\r\n   * Method for returning the fighters' data for the most recent\r\n   * event; it's the supplemental function for its sibling function\r\n   */\r\n  function getFightersForMostRecentEvent() public view returns (string memory fighter1Name, int fighter1Odds, uint fighter1Id, string memory fighter2Name, int fighter2Odds, uint fighter2Id) {\r\n    require(events.length > 1);\r\n\r\n    Event memory fightEvent = events[events.length - 1];\r\n    Fighter memory fighter1 = fightEvent.fighter1;\r\n    Fighter memory fighter2 = fightEvent.fighter2;\r\n\r\n    fighter1Name = fighter1.name;\r\n    fighter1Odds = fighter1.odds;\r\n    fighter1Id = fighter1.id;\r\n    fighter2Name = fighter2.name;\r\n    fighter2Odds = fighter2.odds;\r\n    fighter2Id = fighter2.id;\r\n  }\r\n\r\n  /**\r\n   * Method for returning the most recent event.\r\n   * It does not return the fighters, since\r\n   * functions can't return structs.  Instead,\r\n   * that is done by another method.\r\n   */\r\n  function getMostRecentEvent() public view returns (uint id, uint winner, string memory eventName, uint eventDate) {\r\n    require(events.length > 1);\r\n\r\n    Event memory fightEvent = events[events.length - 1];\r\n\r\n    id = fightEvent.id;\r\n    winner = fightEvent.winner;\r\n    eventName = fightEvent.name;\r\n    eventDate = fightEvent.date;\r\n  }\r\n\r\n  /**\r\n   * Method for making a bet\r\n   */\r\n  function placeBet(uint idForEvent, uint fighterId, uint amount) public payable {\r\n    require(idForEvent <= eventId - 1); // protect against invalid event\r\n    \r\n    address payable user = msg.sender;\r\n    (uint originalValueFighterId, uint originalValueAmount, bool exists) = getBet(idForEvent);\r\n\r\n    if (exists) {\r\n      /**\r\n       * Check that the user is not betting on another user\r\n       */\r\n      require(fighterId == originalValueFighterId);\r\n      bets[idForEvent][user] = Bet(user, originalValueFighterId, (originalValueAmount + amount), true);\r\n    } else {\r\n      /**\r\n       * Check that the user is using valid fighter id\r\n       */\r\n      require(fighterId == 1 || fighterId == 2);\r\n      Bet memory newBet = Bet(user, fighterId, amount, true);\r\n      bets[idForEvent][user] = newBet;\r\n      usersThatPlacedBets[idForEvent].push(user);\r\n    }\r\n\r\n    emit BetSubmitted(user, amount, fighterId);\r\n  }\r\n}",
  "sourcePath": "C:/Users/bguillen/Documents/sandbox/dapp-pocs/main-event-betting/contracts/MainEventBetting.sol",
  "compiler": {
    "name": "solc",
    "version": "0.5.16+commit.9c3226ce.Emscripten.clang"
  },
  "schemaVersion": "3.2.3",
  "updatedAt": "2021-08-03T23:57:14.560Z",
  "devdoc": {
    "methods": {}
  },
  "userdoc": {
    "methods": {
      "calculatePayout(uint256,int256)": {
        "notice": "Method for calculating the payout"
      },
      "constructor": "Used for setting initial sender as owner; there should be an easier way to do this",
      "createEvent(string,int256,string,int256,string,uint256)": {
        "notice": "Method for creating event "
      },
      "getBet(uint256)": {
        "notice": "Method for getting bet"
      },
      "getFightersForMostRecentEvent()": {
        "notice": "Method for returning the fighters' data for the most recent event; it's the supplemental function for its sibling function"
      },
      "getMostRecentEvent()": {
        "notice": "Method for returning the most recent event. It does not return the fighters, since functions can't return structs.  Instead, that is done by another method."
      },
      "placeBet(uint256,uint256,uint256)": {
        "notice": "Method for making a bet"
      }
    }
  }
}