{
  "contractName": "MainEventBetting",
  "abi": [
    {
      "inputs": [],
      "payable": false,
      "stateMutability": "nonpayable",
      "type": "constructor"
    },
    {
      "anonymous": false,
      "inputs": [
        {
          "indexed": false,
          "internalType": "address",
          "name": "from",
          "type": "address"
        },
        {
          "indexed": false,
          "internalType": "uint256",
          "name": "amount",
          "type": "uint256"
        },
        {
          "indexed": false,
          "internalType": "uint256",
          "name": "fighterId",
          "type": "uint256"
        }
      ],
      "name": "BetSubmitted",
      "type": "event"
    },
    {
      "constant": true,
      "inputs": [],
      "name": "balance",
      "outputs": [
        {
          "internalType": "uint256",
          "name": "",
          "type": "uint256"
        }
      ],
      "payable": false,
      "stateMutability": "view",
      "type": "function"
    },
    {
      "constant": true,
      "inputs": [],
      "name": "name",
      "outputs": [
        {
          "internalType": "string",
          "name": "",
          "type": "string"
        }
      ],
      "payable": false,
      "stateMutability": "view",
      "type": "function"
    },
    {
      "constant": true,
      "inputs": [],
      "name": "owner",
      "outputs": [
        {
          "internalType": "address",
          "name": "",
          "type": "address"
        }
      ],
      "payable": false,
      "stateMutability": "view",
      "type": "function"
    },
    {
      "constant": false,
      "inputs": [
        {
          "internalType": "string",
          "name": "fighter1Name",
          "type": "string"
        },
        {
          "internalType": "int256",
          "name": "fighter1Odds",
          "type": "int256"
        },
        {
          "internalType": "string",
          "name": "fighter2Name",
          "type": "string"
        },
        {
          "internalType": "int256",
          "name": "fighter2Odds",
          "type": "int256"
        },
        {
          "internalType": "string",
          "name": "eventName",
          "type": "string"
        },
        {
          "internalType": "uint256",
          "name": "eventDate",
          "type": "uint256"
        }
      ],
      "name": "createEvent",
      "outputs": [],
      "payable": false,
      "stateMutability": "nonpayable",
      "type": "function"
    },
    {
      "constant": true,
      "inputs": [
        {
          "internalType": "uint256",
          "name": "idForEvent",
          "type": "uint256"
        }
      ],
      "name": "getBet",
      "outputs": [
        {
          "internalType": "uint256",
          "name": "fighterId",
          "type": "uint256"
        },
        {
          "internalType": "uint256",
          "name": "amount",
          "type": "uint256"
        },
        {
          "internalType": "bool",
          "name": "exists",
          "type": "bool"
        },
        {
          "internalType": "uint256",
          "name": "indexForBet",
          "type": "uint256"
        }
      ],
      "payable": false,
      "stateMutability": "view",
      "type": "function"
    },
    {
      "constant": true,
      "inputs": [],
      "name": "getFightersForMostRecentEvent",
      "outputs": [
        {
          "internalType": "string",
          "name": "fighter1Name",
          "type": "string"
        },
        {
          "internalType": "int256",
          "name": "fighter1Odds",
          "type": "int256"
        },
        {
          "internalType": "uint256",
          "name": "fighter1Id",
          "type": "uint256"
        },
        {
          "internalType": "string",
          "name": "fighter2Name",
          "type": "string"
        },
        {
          "internalType": "int256",
          "name": "fighter2Odds",
          "type": "int256"
        },
        {
          "internalType": "uint256",
          "name": "fighter2Id",
          "type": "uint256"
        }
      ],
      "payable": false,
      "stateMutability": "view",
      "type": "function"
    },
    {
      "constant": true,
      "inputs": [],
      "name": "getMostRecentEvent",
      "outputs": [
        {
          "internalType": "uint256",
          "name": "id",
          "type": "uint256"
        },
        {
          "internalType": "uint256",
          "name": "winner",
          "type": "uint256"
        },
        {
          "internalType": "string",
          "name": "eventName",
          "type": "string"
        },
        {
          "internalType": "uint256",
          "name": "eventDate",
          "type": "uint256"
        }
      ],
      "payable": false,
      "stateMutability": "view",
      "type": "function"
    },
    {
      "constant": false,
      "inputs": [
        {
          "internalType": "uint256",
          "name": "idForEvent",
          "type": "uint256"
        },
        {
          "internalType": "uint256",
          "name": "fighterId",
          "type": "uint256"
        },
        {
          "internalType": "uint256",
          "name": "amount",
          "type": "uint256"
        }
      ],
      "name": "placeBet",
      "outputs": [],
      "payable": true,
      "stateMutability": "payable",
      "type": "function"
    }
  ],
  "bytecode": "0x60806040526040518060400160405280601081526020017f4d61696e4576656e7442657474696e67000000000000000000000000000000008152506000908051906020019062000051929190620000ac565b5060006005553480156200006457600080fd5b5033600160006101000a81548173ffffffffffffffffffffffffffffffffffffffff021916908373ffffffffffffffffffffffffffffffffffffffff1602179055506200015b565b828054600181600116156101000203166002900490600052602060002090601f016020900481019282601f10620000ef57805160ff191683800117855562000120565b8280016001018555821562000120579182015b828111156200011f57825182559160200191906001019062000102565b5b5090506200012f919062000133565b5090565b6200015891905b80821115620001545760008160009055506001016200013a565b5090565b90565b6114aa806200016b6000396000f3fe60806040526004361061007b5760003560e01c80638c6469f91161004e5780638c6469f9146104a45780638da5cb5b14610549578063b69ef8a8146105a0578063e71c9697146105cb5761007b565b8063061e494f1461008057806306fdde03146100e857806336e5dd83146101785780637971fa551461038c575b600080fd5b34801561008c57600080fd5b506100b9600480360360208110156100a357600080fd5b810190808035906020019092919050505061060d565b604051808581526020018481526020018315151515815260200182815260200194505050505060405180910390f35b3480156100f457600080fd5b506100fd6107e1565b6040518080602001828103825283818151815260200191508051906020019080838360005b8381101561013d578082015181840152602081019050610122565b50505050905090810190601f16801561016a5780820380516001836020036101000a031916815260200191505b509250505060405180910390f35b34801561018457600080fd5b5061038a600480360360c081101561019b57600080fd5b81019080803590602001906401000000008111156101b857600080fd5b8201836020820111156101ca57600080fd5b803590602001918460018302840111640100000000831117156101ec57600080fd5b91908080601f016020809104026020016040519081016040528093929190818152602001838380828437600081840152601f19601f820116905080830192505050505050509192919290803590602001909291908035906020019064010000000081111561025957600080fd5b82018360208201111561026b57600080fd5b8035906020019184600183028401116401000000008311171561028d57600080fd5b91908080601f016020809104026020016040519081016040528093929190818152602001838380828437600081840152601f19601f82011690508083019250505050505050919291929080359060200190929190803590602001906401000000008111156102fa57600080fd5b82018360208201111561030c57600080fd5b8035906020019184600183028401116401000000008311171561032e57600080fd5b91908080601f016020809104026020016040519081016040528093929190818152602001838380828437600081840152601f19601f8201169050808301925050505050505091929192908035906020019092919050505061087f565b005b34801561039857600080fd5b506103a1610a5a565b604051808060200187815260200186815260200180602001858152602001848152602001838103835289818151815260200191508051906020019080838360005b838110156103fd5780820151818401526020810190506103e2565b50505050905090810190601f16801561042a5780820380516001836020036101000a031916815260200191505b50838103825286818151815260200191508051906020019080838360005b83811015610463578082015181840152602081019050610448565b50505050905090810190601f1680156104905780820380516001836020036101000a031916815260200191505b509850505050505050505060405180910390f35b3480156104b057600080fd5b506104b9610d55565b6040518085815260200184815260200180602001838152602001828103825284818151815260200191508051906020019080838360005b8381101561050b5780820151818401526020810190506104f0565b50505050905090810190601f1680156105385780820380516001836020036101000a031916815260200191505b509550505050505060405180910390f35b34801561055557600080fd5b5061055e61101d565b604051808273ffffffffffffffffffffffffffffffffffffffff1673ffffffffffffffffffffffffffffffffffffffff16815260200191505060405180910390f35b3480156105ac57600080fd5b506105b5611043565b6040518082815260200191505060405180910390f35b61060b600480360360608110156105e157600080fd5b81019080803590602001909291908035906020019092919080359060200190929190505050611049565b005b600080600080600093506000925060009150600090506000339050606060046000888152602001908152602001600020805480602002602001604051908101604052809291908181526020016000905b8282101561071457838290600052602060002090600402016040518060800160405290816000820160009054906101000a900473ffffffffffffffffffffffffffffffffffffffff1673ffffffffffffffffffffffffffffffffffffffff1673ffffffffffffffffffffffffffffffffffffffff16815260200160018201548152602001600282015481526020016003820160009054906101000a900460ff1615151515815250508152602001906001019061065d565b50505050905060008090505b81518110156107d7578273ffffffffffffffffffffffffffffffffffffffff1682828151811061074c57fe5b60200260200101516000015173ffffffffffffffffffffffffffffffffffffffff1614156107ca5781818151811061078057fe5b602002602001015160200151965081818151811061079a57fe5b60200260200101516040015195508181815181106107b457fe5b60200260200101516060015194508093506107d7565b8080600101915050610720565b5050509193509193565b60008054600181600116156101000203166002900480601f0160208091040260200160405190810160405280929190818152602001828054600181600116156101000203166002900480156108775780601f1061084c57610100808354040283529160200191610877565b820191906000526020600020905b81548152906001019060200180831161085a57829003601f168201915b505050505081565b600160009054906101000a900473ffffffffffffffffffffffffffffffffffffffff1673ffffffffffffffffffffffffffffffffffffffff163373ffffffffffffffffffffffffffffffffffffffff16146108d957600080fd5b6108e161130c565b60405180606001604052808881526020018781526020016001815250905061090761130c565b60405180606001604052808781526020018681526020016002815250905061092d61132d565b6040518060c001604052808481526020018381526020016002548152602001600081526020018681526020018581525090506003819080600181540180825580915050906001820390600052602060002090600a02016000909192909190915060008201518160000160008201518160000190805190602001906109b292919061136f565b506020820151816001015560408201518160020155505060208201518160030160008201518160000190805190602001906109ee92919061136f565b506020820151816001015560408201518160020155505060408201518160060155606082015181600701556080820151816008019080519060200190610a3592919061136f565b5060a08201518160090155505050600160025401600281905550505050505050505050565b60606000806060600080600160038054905011610a7657600080fd5b610a7e61132d565b600360016003805490500381548110610a9357fe5b90600052602060002090600a02016040518060c001604052908160008201604051806060016040529081600082018054600181600116156101000203166002900480601f016020809104026020016040519081016040528092919081815260200182805460018160011615610100020316600290048015610b555780601f10610b2a57610100808354040283529160200191610b55565b820191906000526020600020905b815481529060010190602001808311610b3857829003601f168201915b5050505050815260200160018201548152602001600282015481525050815260200160038201604051806060016040529081600082018054600181600116156101000203166002900480601f016020809104026020016040519081016040528092919081815260200182805460018160011615610100020316600290048015610c1f5780601f10610bf457610100808354040283529160200191610c1f565b820191906000526020600020905b815481529060010190602001808311610c0257829003601f168201915b505050505081526020016001820154815260200160028201548152505081526020016006820154815260200160078201548152602001600882018054600181600116156101000203166002900480601f016020809104026020016040519081016040528092919081815260200182805460018160011615610100020316600290048015610ced5780601f10610cc257610100808354040283529160200191610ced565b820191906000526020600020905b815481529060010190602001808311610cd057829003601f168201915b505050505081526020016009820154815250509050610d0a61130c565b81600001519050610d1961130c565b82602001519050816000015198508160200151975081604001519650806000015195508060200151945080604001519350505050909192939495565b60008060606000600160038054905011610d6e57600080fd5b610d7661132d565b600360016003805490500381548110610d8b57fe5b90600052602060002090600a02016040518060c001604052908160008201604051806060016040529081600082018054600181600116156101000203166002900480601f016020809104026020016040519081016040528092919081815260200182805460018160011615610100020316600290048015610e4d5780601f10610e2257610100808354040283529160200191610e4d565b820191906000526020600020905b815481529060010190602001808311610e3057829003601f168201915b5050505050815260200160018201548152602001600282015481525050815260200160038201604051806060016040529081600082018054600181600116156101000203166002900480601f016020809104026020016040519081016040528092919081815260200182805460018160011615610100020316600290048015610f175780601f10610eec57610100808354040283529160200191610f17565b820191906000526020600020905b815481529060010190602001808311610efa57829003601f168201915b505050505081526020016001820154815260200160028201548152505081526020016006820154815260200160078201548152602001600882018054600181600116156101000203166002900480601f016020809104026020016040519081016040528092919081815260200182805460018160011615610100020316600290048015610fe55780601f10610fba57610100808354040283529160200191610fe5565b820191906000526020600020905b815481529060010190602001808311610fc857829003601f168201915b5050505050815260200160098201548152505090508060400151945080606001519350806080015192508060a0015191505090919293565b600160009054906101000a900473ffffffffffffffffffffffffffffffffffffffff1681565b60055481565b60016002540383111561105b57600080fd5b600033905060008060008061106f8861060d565b935093509350935081156111745783871461108957600080fd5b60405180608001604052808673ffffffffffffffffffffffffffffffffffffffff168152602001858152602001878501815260200160011515815250600460008a815260200190815260200160002082815481106110e357fe5b906000526020600020906004020160008201518160000160006101000a81548173ffffffffffffffffffffffffffffffffffffffff021916908373ffffffffffffffffffffffffffffffffffffffff160217905550602082015181600101556040820151816002015560608201518160030160006101000a81548160ff02191690831515021790555090505061128f565b60018714806111835750600287145b61118c57600080fd5b6111946113ef565b60405180608001604052808773ffffffffffffffffffffffffffffffffffffffff168152602001898152602001888152602001600115158152509050600460008a8152602001908152602001600020819080600181540180825580915050906001820390600052602060002090600402016000909192909190915060008201518160000160006101000a81548173ffffffffffffffffffffffffffffffffffffffff021916908373ffffffffffffffffffffffffffffffffffffffff160217905550602082015181600101556040820151816002015560608201518160030160006101000a81548160ff021916908315150217905550505050505b7f3754c933744cae8a9a7ca537210cb6c27f00d8fd219ff86ac67a35a067d3bb1a858789604051808473ffffffffffffffffffffffffffffffffffffffff1673ffffffffffffffffffffffffffffffffffffffff168152602001838152602001828152602001935050505060405180910390a15050505050505050565b60405180606001604052806060815260200160008152602001600081525090565b6040518060c0016040528061134061142f565b815260200161134d61142f565b8152602001600081526020016000815260200160608152602001600081525090565b828054600181600116156101000203166002900490600052602060002090601f016020900481019282601f106113b057805160ff19168380011785556113de565b828001600101855582156113de579182015b828111156113dd5782518255916020019190600101906113c2565b5b5090506113eb9190611450565b5090565b6040518060800160405280600073ffffffffffffffffffffffffffffffffffffffff16815260200160008152602001600081526020016000151581525090565b60405180606001604052806060815260200160008152602001600081525090565b61147291905b8082111561146e576000816000905550600101611456565b5090565b9056fea265627a7a723158203349b70f0351a7ec79cc3a09102b2c7f362463dfd41cab9cfce3101c7f9e16ad64736f6c63430005100032",
  "source": "pragma solidity >=0.4.21 <0.7.0;\r\n\r\ncontract MainEventBetting {\r\n  /******************************\r\n   * State\r\n   ******************************/\r\n\r\n  string public name = \"MainEventBetting\";\r\n  address public owner;\r\n  uint eventId;\r\n  Event[] events;\r\n  mapping (uint => Bet[]) bets;\r\n  uint public balance = 0;\r\n\r\n  /******************************\r\n   * Structs\r\n   ******************************/\r\n\r\n  /**\r\n   * Struct that represents a bet for a fight\r\n   */\r\n  struct Bet {\r\n    address payable user;\r\n    uint fighterId;\r\n    uint amount;\r\n    bool exists;\r\n  }\r\n\r\n  /**\r\n   * Struct that represents an event -- a fight\r\n   */\r\n  struct Event {\r\n    Fighter fighter1;\r\n    Fighter fighter2;\r\n    uint id;\r\n    uint winner;\r\n    string name;\r\n    uint date;\r\n  }\r\n\r\n  /**\r\n   * Struct representing a fighter\r\n   */\r\n  struct Fighter {\r\n    string name;\r\n    int odds;\r\n    uint id;\r\n  }\r\n\r\n  /******************************\r\n   * Events\r\n   ******************************/\r\n\r\n  event BetSubmitted(address from, uint amount, uint fighterId);\r\n\r\n  /******************************\r\n   * Constructor\r\n   ******************************/\r\n\r\n  /**\r\n   * Used for setting initial sender as owner; there\r\n   * should be an easier way to do this\r\n   */\r\n  constructor () public {\r\n    owner = msg.sender;\r\n  }\r\n\r\n  /******************************\r\n   * Methods\r\n   ******************************/\r\n\r\n  /**\r\n   * Method for creating event \r\n   */\r\n  function createEvent(string memory fighter1Name, int fighter1Odds, string memory fighter2Name, int fighter2Odds, string memory eventName, uint eventDate) public {\r\n    require(msg.sender == owner);\r\n\r\n    Fighter memory fighter1 = Fighter(fighter1Name, fighter1Odds, 1);\r\n    Fighter memory fighter2 = Fighter(fighter2Name, fighter2Odds, 2);\r\n    Event memory fightEvent = Event(fighter1, fighter2, eventId, 0, eventName, eventDate);\r\n\r\n    events.push(fightEvent);\r\n\r\n    eventId = eventId + 1;\r\n  }\r\n\r\n  /**\r\n   * Method for getting bet\r\n   */\r\n  function getBet(uint idForEvent) public view returns (uint fighterId, uint amount, bool exists, uint indexForBet) {\r\n    /**\r\n     * Defaults\r\n     * Does Solidity handle this already though?\r\n     */\r\n    fighterId = 0;\r\n    amount = 0;\r\n    exists = false;\r\n    indexForBet = 0;\r\n    \r\n    address user = msg.sender;\r\n    Bet[] memory betsForEvent = bets[idForEvent];\r\n\r\n    for (uint i = 0; i < betsForEvent.length; i++) {\r\n      if (betsForEvent[i].user == user) {\r\n        fighterId = betsForEvent[i].fighterId;\r\n        amount = betsForEvent[i].amount;\r\n        exists = betsForEvent[i].exists;\r\n        indexForBet = i;\r\n        break;\r\n      }\r\n    }\r\n  }\r\n  \r\n  /**\r\n   * Method for returning the fighters' data for the most recent\r\n   * event; it's the supplemental function for its sibling function\r\n   */\r\n  function getFightersForMostRecentEvent() public view returns (string memory fighter1Name, int fighter1Odds, uint fighter1Id, string memory fighter2Name, int fighter2Odds, uint fighter2Id) {\r\n    require(events.length > 1);\r\n\r\n    Event memory fightEvent = events[events.length - 1];\r\n    Fighter memory fighter1 = fightEvent.fighter1;\r\n    Fighter memory fighter2 = fightEvent.fighter2;\r\n\r\n    fighter1Name = fighter1.name;\r\n    fighter1Odds = fighter1.odds;\r\n    fighter1Id = fighter1.id;\r\n    fighter2Name = fighter2.name;\r\n    fighter2Odds = fighter2.odds;\r\n    fighter2Id = fighter2.id;\r\n  }\r\n\r\n  /**\r\n   * Method for returning the most recent event.\r\n   * It does not return the fighters, since\r\n   * functions can't return structs.  Instead,\r\n   * that is done by another method.\r\n   */\r\n  function getMostRecentEvent() public view returns (uint id, uint winner, string memory eventName, uint eventDate) {\r\n    require(events.length > 1);\r\n\r\n    Event memory fightEvent = events[events.length - 1];\r\n\r\n    id = fightEvent.id;\r\n    winner = fightEvent.winner;\r\n    eventName = fightEvent.name;\r\n    eventDate = fightEvent.date;\r\n  }\r\n\r\n  /**\r\n   * Method for making a bet\r\n   */\r\n  function placeBet(uint idForEvent, uint fighterId, uint amount) public payable {\r\n    require(idForEvent <= eventId - 1); // protect against invalid event\r\n    \r\n    address payable user = msg.sender;\r\n    (uint originalValueFighterId, uint originalValueAmount, bool exists, uint indexForBet) = getBet(idForEvent);\r\n\r\n    if (exists) {\r\n      /**\r\n       * Check that the user is not betting on another user\r\n       */\r\n      require(fighterId == originalValueFighterId);\r\n      bets[idForEvent][indexForBet] = Bet(user, originalValueFighterId, (originalValueAmount + amount), true);\r\n    } else {\r\n      /**\r\n       * Check that the user is using valid fighter id\r\n       */\r\n      require(fighterId == 1 || fighterId == 2);\r\n      Bet memory newBet = Bet(user, fighterId, amount, true);\r\n      bets[idForEvent].push(newBet);\r\n    }\r\n\r\n    emit BetSubmitted(user, amount, fighterId);\r\n  }\r\n}",
  "sourcePath": "C:/Users/bguillen/Documents/sandbox/dapp-pocs/main-event-betting/contracts/MainEventBetting.sol",
  "compiler": {
    "name": "solc",
    "version": "0.5.16+commit.9c3226ce.Emscripten.clang"
  },
  "schemaVersion": "3.2.3",
  "updatedAt": "2021-08-02T15:28:53.103Z",
  "devdoc": {
    "methods": {}
  },
  "userdoc": {
    "methods": {
      "constructor": "Used for setting initial sender as owner; there should be an easier way to do this",
      "createEvent(string,int256,string,int256,string,uint256)": {
        "notice": "Method for creating event "
      },
      "getBet(uint256)": {
        "notice": "Method for getting bet"
      },
      "getFightersForMostRecentEvent()": {
        "notice": "Method for returning the fighters' data for the most recent event; it's the supplemental function for its sibling function"
      },
      "getMostRecentEvent()": {
        "notice": "Method for returning the most recent event. It does not return the fighters, since functions can't return structs.  Instead, that is done by another method."
      },
      "placeBet(uint256,uint256,uint256)": {
        "notice": "Method for making a bet"
      }
    }
  }
}