{
  "contractName": "MainEventBetting",
  "abi": [
    {
      "inputs": [],
      "payable": false,
      "stateMutability": "nonpayable",
      "type": "constructor"
    },
    {
      "anonymous": false,
      "inputs": [
        {
          "indexed": false,
          "internalType": "address",
          "name": "from",
          "type": "address"
        },
        {
          "indexed": false,
          "internalType": "uint256",
          "name": "amount",
          "type": "uint256"
        },
        {
          "indexed": false,
          "internalType": "uint256",
          "name": "fighterId",
          "type": "uint256"
        }
      ],
      "name": "BetSubmitted",
      "type": "event"
    },
    {
      "constant": true,
      "inputs": [],
      "name": "name",
      "outputs": [
        {
          "internalType": "string",
          "name": "",
          "type": "string"
        }
      ],
      "payable": false,
      "stateMutability": "view",
      "type": "function"
    },
    {
      "constant": true,
      "inputs": [],
      "name": "owner",
      "outputs": [
        {
          "internalType": "address",
          "name": "",
          "type": "address"
        }
      ],
      "payable": false,
      "stateMutability": "view",
      "type": "function"
    },
    {
      "constant": false,
      "inputs": [
        {
          "internalType": "string",
          "name": "fighter1Name",
          "type": "string"
        },
        {
          "internalType": "int256",
          "name": "fighter1Odds",
          "type": "int256"
        },
        {
          "internalType": "string",
          "name": "fighter2Name",
          "type": "string"
        },
        {
          "internalType": "int256",
          "name": "fighter2Odds",
          "type": "int256"
        },
        {
          "internalType": "string",
          "name": "eventName",
          "type": "string"
        },
        {
          "internalType": "uint256",
          "name": "eventDate",
          "type": "uint256"
        }
      ],
      "name": "createEvent",
      "outputs": [],
      "payable": false,
      "stateMutability": "nonpayable",
      "type": "function"
    },
    {
      "constant": true,
      "inputs": [
        {
          "internalType": "uint256",
          "name": "idForEvent",
          "type": "uint256"
        }
      ],
      "name": "getBet",
      "outputs": [
        {
          "internalType": "uint256",
          "name": "fighterId",
          "type": "uint256"
        },
        {
          "internalType": "uint256",
          "name": "amount",
          "type": "uint256"
        },
        {
          "internalType": "bool",
          "name": "exists",
          "type": "bool"
        }
      ],
      "payable": false,
      "stateMutability": "view",
      "type": "function"
    },
    {
      "constant": true,
      "inputs": [],
      "name": "getFightersForMostRecentEvent",
      "outputs": [
        {
          "internalType": "string",
          "name": "fighter1Name",
          "type": "string"
        },
        {
          "internalType": "int256",
          "name": "fighter1Odds",
          "type": "int256"
        },
        {
          "internalType": "uint256",
          "name": "fighter1Id",
          "type": "uint256"
        },
        {
          "internalType": "string",
          "name": "fighter2Name",
          "type": "string"
        },
        {
          "internalType": "int256",
          "name": "fighter2Odds",
          "type": "int256"
        },
        {
          "internalType": "uint256",
          "name": "fighter2Id",
          "type": "uint256"
        }
      ],
      "payable": false,
      "stateMutability": "view",
      "type": "function"
    },
    {
      "constant": true,
      "inputs": [],
      "name": "getMostRecentEvent",
      "outputs": [
        {
          "internalType": "uint256",
          "name": "id",
          "type": "uint256"
        },
        {
          "internalType": "uint256",
          "name": "winner",
          "type": "uint256"
        },
        {
          "internalType": "string",
          "name": "eventName",
          "type": "string"
        },
        {
          "internalType": "uint256",
          "name": "eventDate",
          "type": "uint256"
        }
      ],
      "payable": false,
      "stateMutability": "view",
      "type": "function"
    },
    {
      "constant": false,
      "inputs": [
        {
          "internalType": "uint256",
          "name": "idForEvent",
          "type": "uint256"
        },
        {
          "internalType": "uint256",
          "name": "fighterId",
          "type": "uint256"
        },
        {
          "internalType": "uint256",
          "name": "amount",
          "type": "uint256"
        }
      ],
      "name": "placeBet",
      "outputs": [],
      "payable": true,
      "stateMutability": "payable",
      "type": "function"
    }
  ],
  "bytecode": "0x60806040526040518060400160405280601081526020017f4d61696e4576656e7442657474696e67000000000000000000000000000000008152506000908051906020019062000051929190620000a7565b503480156200005f57600080fd5b5033600160006101000a81548173ffffffffffffffffffffffffffffffffffffffff021916908373ffffffffffffffffffffffffffffffffffffffff16021790555062000156565b828054600181600116156101000203166002900490600052602060002090601f016020900481019282601f10620000ea57805160ff19168380011785556200011b565b828001600101855582156200011b579182015b828111156200011a578251825591602001919060010190620000fd565b5b5090506200012a91906200012e565b5090565b6200015391905b808211156200014f57600081600090555060010162000135565b5090565b90565b6113d180620001666000396000f3fe6080604052600436106100705760003560e01c80637971fa551161004e5780637971fa551461037a5780638c6469f9146104925780638da5cb5b14610537578063e71c96971461058e57610070565b8063061e494f1461007557806306fdde03146100d657806336e5dd8314610166575b600080fd5b34801561008157600080fd5b506100ae6004803603602081101561009857600080fd5b81019080803590602001909291905050506105d0565b6040518084815260200183815260200182151515158152602001935050505060405180910390f35b3480156100e257600080fd5b506100eb6106dc565b6040518080602001828103825283818151815260200191508051906020019080838360005b8381101561012b578082015181840152602081019050610110565b50505050905090810190601f1680156101585780820380516001836020036101000a031916815260200191505b509250505060405180910390f35b34801561017257600080fd5b50610378600480360360c081101561018957600080fd5b81019080803590602001906401000000008111156101a657600080fd5b8201836020820111156101b857600080fd5b803590602001918460018302840111640100000000831117156101da57600080fd5b91908080601f016020809104026020016040519081016040528093929190818152602001838380828437600081840152601f19601f820116905080830192505050505050509192919290803590602001909291908035906020019064010000000081111561024757600080fd5b82018360208201111561025957600080fd5b8035906020019184600183028401116401000000008311171561027b57600080fd5b91908080601f016020809104026020016040519081016040528093929190818152602001838380828437600081840152601f19601f82011690508083019250505050505050919291929080359060200190929190803590602001906401000000008111156102e857600080fd5b8201836020820111156102fa57600080fd5b8035906020019184600183028401116401000000008311171561031c57600080fd5b91908080601f016020809104026020016040519081016040528093929190818152602001838380828437600081840152601f19601f8201169050808301925050505050505091929192908035906020019092919050505061077a565b005b34801561038657600080fd5b5061038f610955565b604051808060200187815260200186815260200180602001858152602001848152602001838103835289818151815260200191508051906020019080838360005b838110156103eb5780820151818401526020810190506103d0565b50505050905090810190601f1680156104185780820380516001836020036101000a031916815260200191505b50838103825286818151815260200191508051906020019080838360005b83811015610451578082015181840152602081019050610436565b50505050905090810190601f16801561047e5780820380516001836020036101000a031916815260200191505b509850505050505050505060405180910390f35b34801561049e57600080fd5b506104a7610c50565b6040518085815260200184815260200180602001838152602001828103825284818151815260200191508051906020019080838360005b838110156104f95780820151818401526020810190506104de565b50505050905090810190601f1680156105265780820380516001836020036101000a031916815260200191505b509550505050505060405180910390f35b34801561054357600080fd5b5061054c610f18565b604051808273ffffffffffffffffffffffffffffffffffffffff1673ffffffffffffffffffffffffffffffffffffffff16815260200191505060405180910390f35b6105ce600480360360608110156105a457600080fd5b81019080803590602001909291908035906020019092919080359060200190929190505050610f3e565b005b60008060006105dd611233565b6004600086815260200190815260200160002060003373ffffffffffffffffffffffffffffffffffffffff1673ffffffffffffffffffffffffffffffffffffffff1681526020019081526020016000206040518060800160405290816000820160009054906101000a900473ffffffffffffffffffffffffffffffffffffffff1673ffffffffffffffffffffffffffffffffffffffff1673ffffffffffffffffffffffffffffffffffffffff16815260200160018201548152602001600282015481526020016003820160009054906101000a900460ff1615151515815250509050806020015193508060400151925080606001519150509193909250565b60008054600181600116156101000203166002900480601f0160208091040260200160405190810160405280929190818152602001828054600181600116156101000203166002900480156107725780601f1061074757610100808354040283529160200191610772565b820191906000526020600020905b81548152906001019060200180831161075557829003601f168201915b505050505081565b600160009054906101000a900473ffffffffffffffffffffffffffffffffffffffff1673ffffffffffffffffffffffffffffffffffffffff163373ffffffffffffffffffffffffffffffffffffffff16146107d457600080fd5b6107dc611273565b604051806060016040528088815260200187815260200160018152509050610802611273565b604051806060016040528087815260200186815260200160028152509050610828611294565b6040518060c001604052808481526020018381526020016002548152602001600081526020018681526020018581525090506003819080600181540180825580915050906001820390600052602060002090600a02016000909192909190915060008201518160000160008201518160000190805190602001906108ad9291906112d6565b506020820151816001015560408201518160020155505060208201518160030160008201518160000190805190602001906108e99291906112d6565b5060208201518160010155604082015181600201555050604082015181600601556060820151816007015560808201518160080190805190602001906109309291906112d6565b5060a08201518160090155505050600160025401600281905550505050505050505050565b6060600080606060008060016003805490501161097157600080fd5b610979611294565b60036001600380549050038154811061098e57fe5b90600052602060002090600a02016040518060c001604052908160008201604051806060016040529081600082018054600181600116156101000203166002900480601f016020809104026020016040519081016040528092919081815260200182805460018160011615610100020316600290048015610a505780601f10610a2557610100808354040283529160200191610a50565b820191906000526020600020905b815481529060010190602001808311610a3357829003601f168201915b5050505050815260200160018201548152602001600282015481525050815260200160038201604051806060016040529081600082018054600181600116156101000203166002900480601f016020809104026020016040519081016040528092919081815260200182805460018160011615610100020316600290048015610b1a5780601f10610aef57610100808354040283529160200191610b1a565b820191906000526020600020905b815481529060010190602001808311610afd57829003601f168201915b505050505081526020016001820154815260200160028201548152505081526020016006820154815260200160078201548152602001600882018054600181600116156101000203166002900480601f016020809104026020016040519081016040528092919081815260200182805460018160011615610100020316600290048015610be85780601f10610bbd57610100808354040283529160200191610be8565b820191906000526020600020905b815481529060010190602001808311610bcb57829003601f168201915b505050505081526020016009820154815250509050610c05611273565b81600001519050610c14611273565b82602001519050816000015198508160200151975081604001519650806000015195508060200151945080604001519350505050909192939495565b60008060606000600160038054905011610c6957600080fd5b610c71611294565b600360016003805490500381548110610c8657fe5b90600052602060002090600a02016040518060c001604052908160008201604051806060016040529081600082018054600181600116156101000203166002900480601f016020809104026020016040519081016040528092919081815260200182805460018160011615610100020316600290048015610d485780601f10610d1d57610100808354040283529160200191610d48565b820191906000526020600020905b815481529060010190602001808311610d2b57829003601f168201915b5050505050815260200160018201548152602001600282015481525050815260200160038201604051806060016040529081600082018054600181600116156101000203166002900480601f016020809104026020016040519081016040528092919081815260200182805460018160011615610100020316600290048015610e125780601f10610de757610100808354040283529160200191610e12565b820191906000526020600020905b815481529060010190602001808311610df557829003601f168201915b505050505081526020016001820154815260200160028201548152505081526020016006820154815260200160078201548152602001600882018054600181600116156101000203166002900480601f016020809104026020016040519081016040528092919081815260200182805460018160011615610100020316600290048015610ee05780601f10610eb557610100808354040283529160200191610ee0565b820191906000526020600020905b815481529060010190602001808311610ec357829003601f168201915b5050505050815260200160098201548152505090508060400151945080606001519350806080015192508060a0015191505090919293565b600160009054906101000a900473ffffffffffffffffffffffffffffffffffffffff1681565b600160025403831115610f5057600080fd5b60003390506000806000610f63876105d0565b925092509250801561108a57828614610f7b57600080fd5b60405180608001604052808573ffffffffffffffffffffffffffffffffffffffff1681526020018481526020018684018152602001600115158152506004600089815260200190815260200160002060008673ffffffffffffffffffffffffffffffffffffffff1673ffffffffffffffffffffffffffffffffffffffff16815260200190815260200160002060008201518160000160006101000a81548173ffffffffffffffffffffffffffffffffffffffff021916908373ffffffffffffffffffffffffffffffffffffffff160217905550602082015181600101556040820151816002015560608201518160030160006101000a81548160ff0219169083151502179055509050506111b7565b60018614806110995750600286145b6110a257600080fd5b6110aa611233565b60405180608001604052808673ffffffffffffffffffffffffffffffffffffffff16815260200188815260200187815260200160011515815250905080600460008a815260200190815260200160002060008773ffffffffffffffffffffffffffffffffffffffff1673ffffffffffffffffffffffffffffffffffffffff16815260200190815260200160002060008201518160000160006101000a81548173ffffffffffffffffffffffffffffffffffffffff021916908373ffffffffffffffffffffffffffffffffffffffff160217905550602082015181600101556040820151816002015560608201518160030160006101000a81548160ff021916908315150217905550905050505b7f3754c933744cae8a9a7ca537210cb6c27f00d8fd219ff86ac67a35a067d3bb1a848688604051808473ffffffffffffffffffffffffffffffffffffffff1673ffffffffffffffffffffffffffffffffffffffff168152602001838152602001828152602001935050505060405180910390a150505050505050565b6040518060800160405280600073ffffffffffffffffffffffffffffffffffffffff16815260200160008152602001600081526020016000151581525090565b60405180606001604052806060815260200160008152602001600081525090565b6040518060c001604052806112a7611356565b81526020016112b4611356565b8152602001600081526020016000815260200160608152602001600081525090565b828054600181600116156101000203166002900490600052602060002090601f016020900481019282601f1061131757805160ff1916838001178555611345565b82800160010185558215611345579182015b82811115611344578251825591602001919060010190611329565b5b5090506113529190611377565b5090565b60405180606001604052806060815260200160008152602001600081525090565b61139991905b8082111561139557600081600090555060010161137d565b5090565b9056fea265627a7a72315820d6b0a341ef65389d9916b9e0c5d0d990c02732ce65f99ff0aa8b761e66fdbd1a64736f6c63430005100032",
  "source": "pragma solidity >=0.4.21 <0.7.0;\r\n\r\ncontract MainEventBetting {\r\n  /******************************\r\n   * State\r\n   ******************************/\r\n\r\n  string public name = \"MainEventBetting\";\r\n  address public owner;\r\n  uint eventId;\r\n  Event[] events;\r\n  mapping (uint => mapping (address => Bet)) bets;\r\n\r\n  /******************************\r\n   * Structs\r\n   ******************************/\r\n\r\n  /**\r\n   * Struct that represents a bet for a fight\r\n   */\r\n  struct Bet {\r\n    address payable user;\r\n    uint fighterId;\r\n    uint amount;\r\n    bool exists;\r\n  }\r\n\r\n  /**\r\n   * Struct that represents an event -- a fight\r\n   */\r\n  struct Event {\r\n    Fighter fighter1;\r\n    Fighter fighter2;\r\n    uint id;\r\n    uint winner;\r\n    string name;\r\n    uint date;\r\n  }\r\n\r\n  /**\r\n   * Struct representing a fighter\r\n   */\r\n  struct Fighter {\r\n    string name;\r\n    int odds;\r\n    uint id;\r\n  }\r\n\r\n  /******************************\r\n   * Events\r\n   ******************************/\r\n\r\n  event BetSubmitted(address from, uint amount, uint fighterId);\r\n\r\n  /******************************\r\n   * Constructor\r\n   ******************************/\r\n\r\n  /**\r\n   * Used for setting initial sender as owner; there\r\n   * should be an easier way to do this\r\n   */\r\n  constructor () public {\r\n    owner = msg.sender;\r\n  }\r\n\r\n  /******************************\r\n   * Methods\r\n   ******************************/\r\n\r\n  /**\r\n   * Method for creating event \r\n   */\r\n  function createEvent(string memory fighter1Name, int fighter1Odds, string memory fighter2Name, int fighter2Odds, string memory eventName, uint eventDate) public {\r\n    require(msg.sender == owner);\r\n\r\n    Fighter memory fighter1 = Fighter(fighter1Name, fighter1Odds, 1);\r\n    Fighter memory fighter2 = Fighter(fighter2Name, fighter2Odds, 2);\r\n    Event memory fightEvent = Event(fighter1, fighter2, eventId, 0, eventName, eventDate);\r\n\r\n    events.push(fightEvent);\r\n\r\n    eventId = eventId + 1;\r\n  }\r\n\r\n  /**\r\n   * Method for getting bet\r\n   */\r\n  function getBet(uint idForEvent) public view returns (uint fighterId, uint amount, bool exists) {\r\n    Bet memory betForEvent = bets[idForEvent][msg.sender];\r\n\r\n    fighterId = betForEvent.fighterId;\r\n    amount = betForEvent.amount;\r\n    exists = betForEvent.exists;\r\n  }\r\n  \r\n  /**\r\n   * Method for returning the fighters' data for the most recent\r\n   * event; it's the supplemental function for its sibling function\r\n   */\r\n  function getFightersForMostRecentEvent() public view returns (string memory fighter1Name, int fighter1Odds, uint fighter1Id, string memory fighter2Name, int fighter2Odds, uint fighter2Id) {\r\n    require(events.length > 1);\r\n\r\n    Event memory fightEvent = events[events.length - 1];\r\n    Fighter memory fighter1 = fightEvent.fighter1;\r\n    Fighter memory fighter2 = fightEvent.fighter2;\r\n\r\n    fighter1Name = fighter1.name;\r\n    fighter1Odds = fighter1.odds;\r\n    fighter1Id = fighter1.id;\r\n    fighter2Name = fighter2.name;\r\n    fighter2Odds = fighter2.odds;\r\n    fighter2Id = fighter2.id;\r\n  }\r\n\r\n  /**\r\n   * Method for returning the most recent event.\r\n   * It does not return the fighters, since\r\n   * functions can't return structs.  Instead,\r\n   * that is done by another method.\r\n   */\r\n  function getMostRecentEvent() public view returns (uint id, uint winner, string memory eventName, uint eventDate) {\r\n    require(events.length > 1);\r\n\r\n    Event memory fightEvent = events[events.length - 1];\r\n\r\n    id = fightEvent.id;\r\n    winner = fightEvent.winner;\r\n    eventName = fightEvent.name;\r\n    eventDate = fightEvent.date;\r\n  }\r\n\r\n  /**\r\n   * Method for making a bet\r\n   */\r\n  function placeBet(uint idForEvent, uint fighterId, uint amount) public payable {\r\n    require(idForEvent <= eventId - 1); // protect against invalid event\r\n    \r\n    address payable user = msg.sender;\r\n    (uint originalValueFighterId, uint originalValueAmount, bool exists) = getBet(idForEvent);\r\n\r\n    if (exists) {\r\n      /**\r\n       * Check that the user is not betting on another user\r\n       */\r\n      require(fighterId == originalValueFighterId);\r\n      bets[idForEvent][user] = Bet(user, originalValueFighterId, (originalValueAmount + amount), true);\r\n    } else {\r\n      /**\r\n       * Check that the user is using valid fighter id\r\n       */\r\n      require(fighterId == 1 || fighterId == 2);\r\n      Bet memory newBet = Bet(user, fighterId, amount, true);\r\n      bets[idForEvent][user] = newBet;\r\n    }\r\n\r\n    emit BetSubmitted(user, amount, fighterId);\r\n  }\r\n}",
  "sourcePath": "C:/Users/bguillen/Documents/sandbox/dapp-pocs/main-event-betting/contracts/MainEventBetting.sol",
  "compiler": {
    "name": "solc",
    "version": "0.5.16+commit.9c3226ce.Emscripten.clang"
  },
  "schemaVersion": "3.2.3",
  "updatedAt": "2021-08-02T15:44:25.498Z",
  "devdoc": {
    "methods": {}
  },
  "userdoc": {
    "methods": {
      "constructor": "Used for setting initial sender as owner; there should be an easier way to do this",
      "createEvent(string,int256,string,int256,string,uint256)": {
        "notice": "Method for creating event "
      },
      "getBet(uint256)": {
        "notice": "Method for getting bet"
      },
      "getFightersForMostRecentEvent()": {
        "notice": "Method for returning the fighters' data for the most recent event; it's the supplemental function for its sibling function"
      },
      "getMostRecentEvent()": {
        "notice": "Method for returning the most recent event. It does not return the fighters, since functions can't return structs.  Instead, that is done by another method."
      },
      "placeBet(uint256,uint256,uint256)": {
        "notice": "Method for making a bet"
      }
    }
  }
}