{
  "contractName": "MainEventBetting",
  "abi": [
    {
      "inputs": [],
      "payable": false,
      "stateMutability": "nonpayable",
      "type": "constructor"
    },
    {
      "anonymous": false,
      "inputs": [
        {
          "indexed": false,
          "internalType": "address",
          "name": "from",
          "type": "address"
        },
        {
          "indexed": false,
          "internalType": "uint256",
          "name": "amount",
          "type": "uint256"
        }
      ],
      "name": "BetSubmitted",
      "type": "event"
    },
    {
      "constant": true,
      "inputs": [],
      "name": "balance",
      "outputs": [
        {
          "internalType": "uint256",
          "name": "",
          "type": "uint256"
        }
      ],
      "payable": false,
      "stateMutability": "view",
      "type": "function"
    },
    {
      "constant": true,
      "inputs": [],
      "name": "name",
      "outputs": [
        {
          "internalType": "string",
          "name": "",
          "type": "string"
        }
      ],
      "payable": false,
      "stateMutability": "view",
      "type": "function"
    },
    {
      "constant": true,
      "inputs": [],
      "name": "owner",
      "outputs": [
        {
          "internalType": "address",
          "name": "",
          "type": "address"
        }
      ],
      "payable": false,
      "stateMutability": "view",
      "type": "function"
    },
    {
      "constant": false,
      "inputs": [
        {
          "internalType": "string",
          "name": "fighter1Name",
          "type": "string"
        },
        {
          "internalType": "int256",
          "name": "fighter1Odds",
          "type": "int256"
        },
        {
          "internalType": "string",
          "name": "fighter2Name",
          "type": "string"
        },
        {
          "internalType": "int256",
          "name": "fighter2Odds",
          "type": "int256"
        },
        {
          "internalType": "string",
          "name": "eventName",
          "type": "string"
        },
        {
          "internalType": "uint256",
          "name": "eventDate",
          "type": "uint256"
        }
      ],
      "name": "createEvent",
      "outputs": [],
      "payable": false,
      "stateMutability": "nonpayable",
      "type": "function"
    },
    {
      "constant": true,
      "inputs": [
        {
          "internalType": "uint256",
          "name": "idForEvent",
          "type": "uint256"
        }
      ],
      "name": "getBet",
      "outputs": [
        {
          "internalType": "uint256",
          "name": "fighterId",
          "type": "uint256"
        },
        {
          "internalType": "uint256",
          "name": "amount",
          "type": "uint256"
        },
        {
          "internalType": "bool",
          "name": "exists",
          "type": "bool"
        },
        {
          "internalType": "uint256",
          "name": "indexForBet",
          "type": "uint256"
        }
      ],
      "payable": false,
      "stateMutability": "view",
      "type": "function"
    },
    {
      "constant": true,
      "inputs": [],
      "name": "getFightersForMostRecentEvent",
      "outputs": [
        {
          "internalType": "string",
          "name": "fighter1Name",
          "type": "string"
        },
        {
          "internalType": "int256",
          "name": "fighter1Odds",
          "type": "int256"
        },
        {
          "internalType": "uint256",
          "name": "fighter1Id",
          "type": "uint256"
        },
        {
          "internalType": "string",
          "name": "fighter2Name",
          "type": "string"
        },
        {
          "internalType": "int256",
          "name": "fighter2Odds",
          "type": "int256"
        },
        {
          "internalType": "uint256",
          "name": "fighter2Id",
          "type": "uint256"
        }
      ],
      "payable": false,
      "stateMutability": "view",
      "type": "function"
    },
    {
      "constant": true,
      "inputs": [],
      "name": "getMostRecentEvent",
      "outputs": [
        {
          "internalType": "uint256",
          "name": "id",
          "type": "uint256"
        },
        {
          "internalType": "uint256",
          "name": "winner",
          "type": "uint256"
        },
        {
          "internalType": "string",
          "name": "eventName",
          "type": "string"
        },
        {
          "internalType": "uint256",
          "name": "eventDate",
          "type": "uint256"
        }
      ],
      "payable": false,
      "stateMutability": "view",
      "type": "function"
    },
    {
      "constant": false,
      "inputs": [
        {
          "internalType": "uint256",
          "name": "idForEvent",
          "type": "uint256"
        },
        {
          "internalType": "uint256",
          "name": "fighterId",
          "type": "uint256"
        },
        {
          "internalType": "uint256",
          "name": "amount",
          "type": "uint256"
        }
      ],
      "name": "placeBet",
      "outputs": [],
      "payable": false,
      "stateMutability": "nonpayable",
      "type": "function"
    }
  ],
  "bytecode": "0x60806040526040518060400160405280601081526020017f4d61696e4576656e7442657474696e67000000000000000000000000000000008152506000908051906020019062000051929190620000ac565b5060006005553480156200006457600080fd5b5033600160006101000a81548173ffffffffffffffffffffffffffffffffffffffff021916908373ffffffffffffffffffffffffffffffffffffffff1602179055506200015b565b828054600181600116156101000203166002900490600052602060002090601f016020900481019282601f10620000ef57805160ff191683800117855562000120565b8280016001018555821562000120579182015b828111156200011f57825182559160200191906001019062000102565b5b5090506200012f919062000133565b5090565b6200015891905b80821115620001545760008160009055506001016200013a565b5090565b90565b611453806200016b6000396000f3fe608060405234801561001057600080fd5b50600436106100885760003560e01c80638c6469f91161005b5780638c6469f91461047d5780638da5cb5b14610515578063b69ef8a81461055f578063e71c96971461057d57610088565b8063061e494f1461008d57806306fdde03146100e857806336e5dd831461016b5780637971fa5514610372575b600080fd5b6100b9600480360360208110156100a357600080fd5b81019080803590602001909291905050506105bf565b604051808581526020018481526020018315151515815260200182815260200194505050505060405180910390f35b6100f0610793565b6040518080602001828103825283818151815260200191508051906020019080838360005b83811015610130578082015181840152602081019050610115565b50505050905090810190601f16801561015d5780820380516001836020036101000a031916815260200191505b509250505060405180910390f35b610370600480360360c081101561018157600080fd5b810190808035906020019064010000000081111561019e57600080fd5b8201836020820111156101b057600080fd5b803590602001918460018302840111640100000000831117156101d257600080fd5b91908080601f016020809104026020016040519081016040528093929190818152602001838380828437600081840152601f19601f820116905080830192505050505050509192919290803590602001909291908035906020019064010000000081111561023f57600080fd5b82018360208201111561025157600080fd5b8035906020019184600183028401116401000000008311171561027357600080fd5b91908080601f016020809104026020016040519081016040528093929190818152602001838380828437600081840152601f19601f82011690508083019250505050505050919291929080359060200190929190803590602001906401000000008111156102e057600080fd5b8201836020820111156102f257600080fd5b8035906020019184600183028401116401000000008311171561031457600080fd5b91908080601f016020809104026020016040519081016040528093929190818152602001838380828437600081840152601f19601f82011690508083019250505050505050919291929080359060200190929190505050610831565b005b61037a610a0c565b604051808060200187815260200186815260200180602001858152602001848152602001838103835289818151815260200191508051906020019080838360005b838110156103d65780820151818401526020810190506103bb565b50505050905090810190601f1680156104035780820380516001836020036101000a031916815260200191505b50838103825286818151815260200191508051906020019080838360005b8381101561043c578082015181840152602081019050610421565b50505050905090810190601f1680156104695780820380516001836020036101000a031916815260200191505b509850505050505050505060405180910390f35b610485610d07565b6040518085815260200184815260200180602001838152602001828103825284818151815260200191508051906020019080838360005b838110156104d75780820151818401526020810190506104bc565b50505050905090810190601f1680156105045780820380516001836020036101000a031916815260200191505b509550505050505060405180910390f35b61051d610fcf565b604051808273ffffffffffffffffffffffffffffffffffffffff1673ffffffffffffffffffffffffffffffffffffffff16815260200191505060405180910390f35b610567610ff5565b6040518082815260200191505060405180910390f35b6105bd6004803603606081101561059357600080fd5b81019080803590602001909291908035906020019092919080359060200190929190505050610ffb565b005b600080600080600093506000925060009150600090506000339050606060046000888152602001908152602001600020805480602002602001604051908101604052809291908181526020016000905b828210156106c657838290600052602060002090600402016040518060800160405290816000820160009054906101000a900473ffffffffffffffffffffffffffffffffffffffff1673ffffffffffffffffffffffffffffffffffffffff1673ffffffffffffffffffffffffffffffffffffffff16815260200160018201548152602001600282015481526020016003820160009054906101000a900460ff1615151515815250508152602001906001019061060f565b50505050905060008090505b8151811015610789578273ffffffffffffffffffffffffffffffffffffffff168282815181106106fe57fe5b60200260200101516000015173ffffffffffffffffffffffffffffffffffffffff16141561077c5781818151811061073257fe5b602002602001015160200151965081818151811061074c57fe5b602002602001015160400151955081818151811061076657fe5b6020026020010151606001519450809350610789565b80806001019150506106d2565b5050509193509193565b60008054600181600116156101000203166002900480601f0160208091040260200160405190810160405280929190818152602001828054600181600116156101000203166002900480156108295780601f106107fe57610100808354040283529160200191610829565b820191906000526020600020905b81548152906001019060200180831161080c57829003601f168201915b505050505081565b600160009054906101000a900473ffffffffffffffffffffffffffffffffffffffff1673ffffffffffffffffffffffffffffffffffffffff163373ffffffffffffffffffffffffffffffffffffffff161461088b57600080fd5b6108936112b5565b6040518060600160405280888152602001878152602001600181525090506108b96112b5565b6040518060600160405280878152602001868152602001600281525090506108df6112d6565b6040518060c001604052808481526020018381526020016002548152602001600081526020018681526020018581525090506003819080600181540180825580915050906001820390600052602060002090600a0201600090919290919091506000820151816000016000820151816000019080519060200190610964929190611318565b506020820151816001015560408201518160020155505060208201518160030160008201518160000190805190602001906109a0929190611318565b5060208201518160010155604082015181600201555050604082015181600601556060820151816007015560808201518160080190805190602001906109e7929190611318565b5060a08201518160090155505050600160025401600281905550505050505050505050565b60606000806060600080600160038054905011610a2857600080fd5b610a306112d6565b600360016003805490500381548110610a4557fe5b90600052602060002090600a02016040518060c001604052908160008201604051806060016040529081600082018054600181600116156101000203166002900480601f016020809104026020016040519081016040528092919081815260200182805460018160011615610100020316600290048015610b075780601f10610adc57610100808354040283529160200191610b07565b820191906000526020600020905b815481529060010190602001808311610aea57829003601f168201915b5050505050815260200160018201548152602001600282015481525050815260200160038201604051806060016040529081600082018054600181600116156101000203166002900480601f016020809104026020016040519081016040528092919081815260200182805460018160011615610100020316600290048015610bd15780601f10610ba657610100808354040283529160200191610bd1565b820191906000526020600020905b815481529060010190602001808311610bb457829003601f168201915b505050505081526020016001820154815260200160028201548152505081526020016006820154815260200160078201548152602001600882018054600181600116156101000203166002900480601f016020809104026020016040519081016040528092919081815260200182805460018160011615610100020316600290048015610c9f5780601f10610c7457610100808354040283529160200191610c9f565b820191906000526020600020905b815481529060010190602001808311610c8257829003601f168201915b505050505081526020016009820154815250509050610cbc6112b5565b81600001519050610ccb6112b5565b82602001519050816000015198508160200151975081604001519650806000015195508060200151945080604001519350505050909192939495565b60008060606000600160038054905011610d2057600080fd5b610d286112d6565b600360016003805490500381548110610d3d57fe5b90600052602060002090600a02016040518060c001604052908160008201604051806060016040529081600082018054600181600116156101000203166002900480601f016020809104026020016040519081016040528092919081815260200182805460018160011615610100020316600290048015610dff5780601f10610dd457610100808354040283529160200191610dff565b820191906000526020600020905b815481529060010190602001808311610de257829003601f168201915b5050505050815260200160018201548152602001600282015481525050815260200160038201604051806060016040529081600082018054600181600116156101000203166002900480601f016020809104026020016040519081016040528092919081815260200182805460018160011615610100020316600290048015610ec95780601f10610e9e57610100808354040283529160200191610ec9565b820191906000526020600020905b815481529060010190602001808311610eac57829003601f168201915b505050505081526020016001820154815260200160028201548152505081526020016006820154815260200160078201548152602001600882018054600181600116156101000203166002900480601f016020809104026020016040519081016040528092919081815260200182805460018160011615610100020316600290048015610f975780601f10610f6c57610100808354040283529160200191610f97565b820191906000526020600020905b815481529060010190602001808311610f7a57829003601f168201915b5050505050815260200160098201548152505090508060400151945080606001519350806080015192508060a0015191505090919293565b600160009054906101000a900473ffffffffffffffffffffffffffffffffffffffff1681565b60055481565b60016002540383111561100d57600080fd5b6000339050600080600080611021886105bf565b935093509350935081156111265783871461103b57600080fd5b60405180608001604052808673ffffffffffffffffffffffffffffffffffffffff168152602001858152602001878501815260200160011515815250600460008a8152602001908152602001600020828154811061109557fe5b906000526020600020906004020160008201518160000160006101000a81548173ffffffffffffffffffffffffffffffffffffffff021916908373ffffffffffffffffffffffffffffffffffffffff160217905550602082015181600101556040820151816002015560608201518160030160006101000a81548160ff021916908315150217905550905050611241565b60018714806111355750600287145b61113e57600080fd5b611146611398565b60405180608001604052808773ffffffffffffffffffffffffffffffffffffffff168152602001898152602001888152602001600115158152509050600460008a8152602001908152602001600020819080600181540180825580915050906001820390600052602060002090600402016000909192909190915060008201518160000160006101000a81548173ffffffffffffffffffffffffffffffffffffffff021916908373ffffffffffffffffffffffffffffffffffffffff160217905550602082015181600101556040820151816002015560608201518160030160006101000a81548160ff021916908315150217905550505050505b7ef155a4eff687aabcfeeff2e2d08dc753e01fa88d064522db55fbf98b723c818587604051808373ffffffffffffffffffffffffffffffffffffffff1673ffffffffffffffffffffffffffffffffffffffff1681526020018281526020019250505060405180910390a15050505050505050565b60405180606001604052806060815260200160008152602001600081525090565b6040518060c001604052806112e96113d8565b81526020016112f66113d8565b8152602001600081526020016000815260200160608152602001600081525090565b828054600181600116156101000203166002900490600052602060002090601f016020900481019282601f1061135957805160ff1916838001178555611387565b82800160010185558215611387579182015b8281111561138657825182559160200191906001019061136b565b5b50905061139491906113f9565b5090565b6040518060800160405280600073ffffffffffffffffffffffffffffffffffffffff16815260200160008152602001600081526020016000151581525090565b60405180606001604052806060815260200160008152602001600081525090565b61141b91905b808211156114175760008160009055506001016113ff565b5090565b9056fea265627a7a723158202302d7e49003a3defbe95ddc32c405bd07d49a018ec57df917ed58e38fb9b11e64736f6c63430005100032",
  "source": "pragma solidity >=0.4.21 <0.7.0;\r\n\r\ncontract MainEventBetting {\r\n  /******************************\r\n   * State\r\n   ******************************/\r\n\r\n  string public name = \"MainEventBetting\";\r\n  address public owner;\r\n  uint eventId;\r\n  Event[] events;\r\n  mapping (uint => Bet[]) bets;\r\n  uint public balance = 0;\r\n\r\n  /******************************\r\n   * Structs\r\n   ******************************/\r\n\r\n  /**\r\n   * Struct that represents a bet for a fight\r\n   */\r\n  struct Bet {\r\n    address payable user;\r\n    uint fighterId;\r\n    uint amount;\r\n    bool exists;\r\n  }\r\n\r\n  /**\r\n   * Struct that represents an event -- a fight\r\n   */\r\n  struct Event {\r\n    Fighter fighter1;\r\n    Fighter fighter2;\r\n    uint id;\r\n    uint winner;\r\n    string name;\r\n    uint date;\r\n  }\r\n\r\n  /**\r\n   * Struct representing a fighter\r\n   */\r\n  struct Fighter {\r\n    string name;\r\n    int odds;\r\n    uint id;\r\n  }\r\n\r\n  /******************************\r\n   * Events\r\n   ******************************/\r\n\r\n  event BetSubmitted(address from, uint amount);\r\n\r\n  /******************************\r\n   * Constructor\r\n   ******************************/\r\n\r\n  /**\r\n   * Used for setting initial sender as owner; there\r\n   * should be an easier way to do this\r\n   */\r\n  constructor () public {\r\n    owner = msg.sender;\r\n  }\r\n\r\n  /******************************\r\n   * Methods\r\n   ******************************/\r\n\r\n  /**\r\n   * Method for creating event \r\n   */\r\n  function createEvent(string memory fighter1Name, int fighter1Odds, string memory fighter2Name, int fighter2Odds, string memory eventName, uint eventDate) public {\r\n    require(msg.sender == owner);\r\n\r\n    Fighter memory fighter1 = Fighter(fighter1Name, fighter1Odds, 1);\r\n    Fighter memory fighter2 = Fighter(fighter2Name, fighter2Odds, 2);\r\n    Event memory fightEvent = Event(fighter1, fighter2, eventId, 0, eventName, eventDate);\r\n\r\n    events.push(fightEvent);\r\n\r\n    eventId = eventId + 1;\r\n  }\r\n\r\n  /**\r\n   * Method for getting bet\r\n   */\r\n  function getBet(uint idForEvent) public view returns (uint fighterId, uint amount, bool exists, uint indexForBet) {\r\n    /**\r\n     * Defaults\r\n     * Does Solidity handle this already though?\r\n     */\r\n    fighterId = 0;\r\n    amount = 0;\r\n    exists = false;\r\n    indexForBet = 0;\r\n    \r\n    address user = msg.sender;\r\n    Bet[] memory betsForEvent = bets[idForEvent];\r\n\r\n    for (uint i = 0; i < betsForEvent.length; i++) {\r\n      if (betsForEvent[i].user == user) {\r\n        fighterId = betsForEvent[i].fighterId;\r\n        amount = betsForEvent[i].amount;\r\n        exists = betsForEvent[i].exists;\r\n        indexForBet = i;\r\n        break;\r\n      }\r\n    }\r\n  }\r\n  \r\n  /**\r\n   * Method for returning the fighters' data for the most recent\r\n   * event; it's the supplemental function for its sibling function\r\n   */\r\n  function getFightersForMostRecentEvent() public view returns (string memory fighter1Name, int fighter1Odds, uint fighter1Id, string memory fighter2Name, int fighter2Odds, uint fighter2Id) {\r\n    require(events.length > 1);\r\n\r\n    Event memory fightEvent = events[events.length - 1];\r\n    Fighter memory fighter1 = fightEvent.fighter1;\r\n    Fighter memory fighter2 = fightEvent.fighter2;\r\n\r\n    fighter1Name = fighter1.name;\r\n    fighter1Odds = fighter1.odds;\r\n    fighter1Id = fighter1.id;\r\n    fighter2Name = fighter2.name;\r\n    fighter2Odds = fighter2.odds;\r\n    fighter2Id = fighter2.id;\r\n  }\r\n\r\n  /**\r\n   * Method for returning the most recent event.\r\n   * It does not return the fighters, since\r\n   * functions can't return structs.  Instead,\r\n   * that is done by another method.\r\n   */\r\n  function getMostRecentEvent() public view returns (uint id, uint winner, string memory eventName, uint eventDate) {\r\n    require(events.length > 1);\r\n\r\n    Event memory fightEvent = events[events.length - 1];\r\n\r\n    id = fightEvent.id;\r\n    winner = fightEvent.winner;\r\n    eventName = fightEvent.name;\r\n    eventDate = fightEvent.date;\r\n  }\r\n\r\n  /**\r\n   * Method for making a bet\r\n   */\r\n  function placeBet(uint idForEvent, uint fighterId, uint amount) public {\r\n    require(idForEvent <= eventId - 1); // protect against invalid event\r\n    \r\n    address payable user = msg.sender;\r\n    (uint originalValueFighterId, uint originalValueAmount, bool exists, uint indexForBet) = getBet(idForEvent);\r\n\r\n    if (exists) {\r\n      /**\r\n       * Check that the user is not betting on another user\r\n       */\r\n      require(fighterId == originalValueFighterId);\r\n      bets[idForEvent][indexForBet] = Bet(user, originalValueFighterId, (originalValueAmount + amount), true);\r\n    } else {\r\n      /**\r\n       * Check that the user is using valid fighter id\r\n       */\r\n      require(fighterId == 1 || fighterId == 2);\r\n      Bet memory newBet = Bet(user, fighterId, amount, true);\r\n      bets[idForEvent].push(newBet);\r\n    }\r\n\r\n    emit BetSubmitted(user, amount);\r\n  }\r\n}",
  "sourcePath": "C:/Users/bguillen/Documents/sandbox/dapp-pocs/main-event-betting/contracts/MainEventBetting.sol",
  "compiler": {
    "name": "solc",
    "version": "0.5.16+commit.9c3226ce.Emscripten.clang"
  },
  "schemaVersion": "3.2.3",
  "updatedAt": "2021-08-02T15:08:51.030Z",
  "devdoc": {
    "methods": {}
  },
  "userdoc": {
    "methods": {
      "constructor": "Used for setting initial sender as owner; there should be an easier way to do this",
      "createEvent(string,int256,string,int256,string,uint256)": {
        "notice": "Method for creating event "
      },
      "getBet(uint256)": {
        "notice": "Method for getting bet"
      },
      "getFightersForMostRecentEvent()": {
        "notice": "Method for returning the fighters' data for the most recent event; it's the supplemental function for its sibling function"
      },
      "getMostRecentEvent()": {
        "notice": "Method for returning the most recent event. It does not return the fighters, since functions can't return structs.  Instead, that is done by another method."
      },
      "placeBet(uint256,uint256,uint256)": {
        "notice": "Method for making a bet"
      }
    }
  }
}